{
  "abi": [
    {
      "inputs": [
        {
          "internalType": "contract IERC721",
          "name": "_nftCollection",
          "type": "address"
        },
        {
          "internalType": "contract IERC20",
          "name": "_RewardsToken",
          "type": "address"
        }
      ],
      "stateMutability": "nonpayable",
      "type": "constructor"
    },
    {
      "inputs": [
        {
          "internalType": "address",
          "name": "_staker",
          "type": "address"
        }
      ],
      "name": "availableRewards",
      "outputs": [
        {
          "internalType": "uint256",
          "name": "",
          "type": "uint256"
        }
      ],
      "stateMutability": "view",
      "type": "function"
    },
    {
      "inputs": [],
      "name": "claimRewards",
      "outputs": [],
      "stateMutability": "nonpayable",
      "type": "function"
    },
    {
      "inputs": [
        {
          "internalType": "address",
          "name": "_user",
          "type": "address"
        }
      ],
      "name": "getStakedTokens",
      "outputs": [
        {
          "components": [
            {
              "internalType": "address",
              "name": "staker",
              "type": "address"
            },
            {
              "internalType": "uint256",
              "name": "tokenId",
              "type": "uint256"
            }
          ],
          "internalType": "struct ERC721Staking.StakedToken[]",
          "name": "",
          "type": "tuple[]"
        }
      ],
      "stateMutability": "view",
      "type": "function"
    },
    {
      "inputs": [],
      "name": "nftCollection",
      "outputs": [
        {
          "internalType": "contract IERC721",
          "name": "",
          "type": "address"
        }
      ],
      "stateMutability": "view",
      "type": "function"
    },
    {
      "inputs": [],
      "name": "rewardsToken",
      "outputs": [
        {
          "internalType": "contract IERC20",
          "name": "",
          "type": "address"
        }
      ],
      "stateMutability": "view",
      "type": "function"
    },
    {
      "inputs": [
        {
          "internalType": "uint256",
          "name": "_tokenId",
          "type": "uint256"
        }
      ],
      "name": "stake",
      "outputs": [],
      "stateMutability": "nonpayable",
      "type": "function"
    },
    {
      "inputs": [
        {
          "internalType": "uint256",
          "name": "",
          "type": "uint256"
        }
      ],
      "name": "stakerAddress",
      "outputs": [
        {
          "internalType": "address",
          "name": "",
          "type": "address"
        }
      ],
      "stateMutability": "view",
      "type": "function"
    },
    {
      "inputs": [
        {
          "internalType": "address",
          "name": "",
          "type": "address"
        }
      ],
      "name": "stakers",
      "outputs": [
        {
          "internalType": "uint256",
          "name": "amountStaked",
          "type": "uint256"
        },
        {
          "internalType": "uint256",
          "name": "timeOfLastUpdate",
          "type": "uint256"
        },
        {
          "internalType": "uint256",
          "name": "unclaimedRewards",
          "type": "uint256"
        }
      ],
      "stateMutability": "view",
      "type": "function"
    },
    {
      "inputs": [
        {
          "internalType": "uint256",
          "name": "_tokenId",
          "type": "uint256"
        }
      ],
      "name": "withdraw",
      "outputs": [],
      "stateMutability": "nonpayable",
      "type": "function"
    }
  ],
  "devdoc": {
    "kind": "dev",
    "methods": {},
    "version": 1
  },
  "evm": {
    "assembly": "    /* \"NftStaking.sol\":311:6136  contract ERC721Staking is ReentrancyGuard {... */\n  mstore(0x40, 0xc0)\n    /* \"NftStaking.sol\":1327:1333  100000 */\n  0x0186a0\n    /* \"NftStaking.sol\":1294:1333  uint256 private rewardsPerHour = 100000 */\n  0x01\n  sstore\n    /* \"NftStaking.sol\":485:631  constructor(IERC721 _nftCollection, IERC20 _RewardsToken) {... */\n  callvalue\n  dup1\n  iszero\n  tag_1\n  jumpi\n  0x00\n  dup1\n  revert\ntag_1:\n  pop\n  mload(0x40)\n  sub(codesize, bytecodeSize)\n  dup1\n  bytecodeSize\n  dup4\n  codecopy\n  dup2\n  add\n  0x40\n  dup2\n  swap1\n  mstore\n  tag_2\n  swap2\n  tag_3\n  jump\t// in\ntag_2:\n    /* \"@openzeppelin/contracts/security/ReentrancyGuard.sol\":1716:1717   */\n  0x01\n    /* \"@openzeppelin/contracts/security/ReentrancyGuard.sol\":1821:1828   */\n  0x00\n    /* \"@openzeppelin/contracts/security/ReentrancyGuard.sol\":1821:1843   */\n  sstore\n  sub(shl(0xa0, 0x01), 0x01)\n    /* \"NftStaking.sol\":554:584  nftCollection = _nftCollection */\n  swap2\n  dup3\n  and\n  0xa0\n  mstore\n    /* \"NftStaking.sol\":595:623  rewardsToken = _RewardsToken */\n  and\n  0x80\n  mstore\n    /* \"NftStaking.sol\":311:6136  contract ERC721Staking is ReentrancyGuard {... */\n  jump(tag_10)\n    /* \"#utility.yul\":14:154   */\ntag_9:\n  sub(shl(0xa0, 0x01), 0x01)\n    /* \"#utility.yul\":98:129   */\n  dup2\n  and\n    /* \"#utility.yul\":88:130   */\n  dup2\n  eq\n    /* \"#utility.yul\":78:148   */\n  tag_12\n  jumpi\n    /* \"#utility.yul\":144:145   */\n  0x00\n    /* \"#utility.yul\":141:142   */\n  dup1\n    /* \"#utility.yul\":134:146   */\n  revert\n    /* \"#utility.yul\":78:148   */\ntag_12:\n    /* \"#utility.yul\":14:154   */\n  pop\n  jump\t// out\n    /* \"#utility.yul\":159:592   */\ntag_3:\n    /* \"#utility.yul\":268:274   */\n  0x00\n    /* \"#utility.yul\":276:282   */\n  dup1\n    /* \"#utility.yul\":329:331   */\n  0x40\n    /* \"#utility.yul\":317:326   */\n  dup4\n    /* \"#utility.yul\":308:315   */\n  dup6\n    /* \"#utility.yul\":304:327   */\n  sub\n    /* \"#utility.yul\":300:332   */\n  slt\n    /* \"#utility.yul\":297:349   */\n  iszero\n  tag_14\n  jumpi\n    /* \"#utility.yul\":345:346   */\n  0x00\n    /* \"#utility.yul\":342:343   */\n  dup1\n    /* \"#utility.yul\":335:347   */\n  revert\n    /* \"#utility.yul\":297:349   */\ntag_14:\n    /* \"#utility.yul\":377:386   */\n  dup3\n    /* \"#utility.yul\":371:387   */\n  mload\n    /* \"#utility.yul\":396:436   */\n  tag_15\n    /* \"#utility.yul\":430:435   */\n  dup2\n    /* \"#utility.yul\":396:436   */\n  tag_9\n  jump\t// in\ntag_15:\n    /* \"#utility.yul\":505:507   */\n  0x20\n    /* \"#utility.yul\":490:508   */\n  dup5\n  add\n    /* \"#utility.yul\":484:509   */\n  mload\n    /* \"#utility.yul\":455:460   */\n  swap1\n  swap3\n  pop\n    /* \"#utility.yul\":518:560   */\n  tag_16\n    /* \"#utility.yul\":484:509   */\n  dup2\n    /* \"#utility.yul\":518:560   */\n  tag_9\n  jump\t// in\ntag_16:\n    /* \"#utility.yul\":579:586   */\n  dup1\n    /* \"#utility.yul\":569:586   */\n  swap2\n  pop\n  pop\n    /* \"#utility.yul\":159:592   */\n  swap3\n  pop\n  swap3\n  swap1\n  pop\n  jump\t// out\ntag_10:\n    /* \"NftStaking.sol\":311:6136  contract ERC721Staking is ReentrancyGuard {... */\n  mload(0x80)\n  mload(0xa0)\n  codecopy(0x00, dataOffset(sub_0), dataSize(sub_0))\n  0x00\n  assignImmutable(\"0x8e8fab5f003314da8d1873ea7720e8d9f47650136d916064d1edb8a11d682624\")\n  0x00\n  assignImmutable(\"0x5c4c6aa067b6f8e6cb38e6ab843832a94d1712d661a04d73c517d6a1931a9e5d\")\n  return(0x00, dataSize(sub_0))\nstop\n\nsub_0: assembly {\n        /* \"NftStaking.sol\":311:6136  contract ERC721Staking is ReentrancyGuard {... */\n      mstore(0x40, 0x80)\n      callvalue\n      dup1\n      iszero\n      tag_1\n      jumpi\n      0x00\n      dup1\n      revert\n    tag_1:\n      pop\n      jumpi(tag_2, lt(calldatasize, 0x04))\n      shr(0xe0, calldataload(0x00))\n      dup1\n      0x9168ae72\n      gt\n      tag_12\n      jumpi\n      dup1\n      0xa694fc3a\n      gt\n      tag_13\n      jumpi\n      dup1\n      0xa694fc3a\n      eq\n      tag_9\n      jumpi\n      dup1\n      0xd1af0c7d\n      eq\n      tag_10\n      jumpi\n      dup1\n      0xf854a27f\n      eq\n      tag_11\n      jumpi\n      0x00\n      dup1\n      revert\n    tag_13:\n      dup1\n      0x9168ae72\n      eq\n      tag_7\n      jumpi\n      dup1\n      0x94067045\n      eq\n      tag_8\n      jumpi\n      0x00\n      dup1\n      revert\n    tag_12:\n      dup1\n      0x2e1a7d4d\n      eq\n      tag_3\n      jumpi\n      dup1\n      0x372500ab\n      eq\n      tag_4\n      jumpi\n      dup1\n      0x63c28db1\n      eq\n      tag_5\n      jumpi\n      dup1\n      0x6588103b\n      eq\n      tag_6\n      jumpi\n    tag_2:\n      0x00\n      dup1\n      revert\n        /* \"NftStaking.sol\":2823:4457  function withdraw(uint256 _tokenId) external nonReentrant {... */\n    tag_3:\n      tag_14\n      tag_15\n      calldatasize\n      0x04\n      tag_16\n      jump\t// in\n    tag_15:\n      tag_17\n      jump\t// in\n    tag_14:\n      stop\n        /* \"NftStaking.sol\":4465:4844  function claimRewards() external {... */\n    tag_4:\n      tag_14\n      tag_19\n      jump\t// in\n        /* \"NftStaking.sol\":5303:6125  function getStakedTokens(address _user) public view returns (StakedToken[] memory) {... */\n    tag_5:\n      tag_20\n      tag_21\n      calldatasize\n      0x04\n      tag_22\n      jump\t// in\n    tag_21:\n      tag_23\n      jump\t// in\n    tag_20:\n      mload(0x40)\n      tag_24\n      swap2\n      swap1\n      tag_25\n      jump\t// in\n    tag_24:\n      mload(0x40)\n      dup1\n      swap2\n      sub\n      swap1\n      return\n        /* \"NftStaking.sol\":438:476  IERC721 public immutable nftCollection */\n    tag_6:\n      tag_26\n      immutable(\"0x8e8fab5f003314da8d1873ea7720e8d9f47650136d916064d1edb8a11d682624\")\n      dup2\n      jump\n    tag_26:\n      mload(0x40)\n      sub(shl(0xa0, 0x01), 0x01)\n        /* \"#utility.yul\":1636:1691   */\n      swap1\n      swap2\n      and\n        /* \"#utility.yul\":1618:1692   */\n      dup2\n      mstore\n        /* \"#utility.yul\":1606:1608   */\n      0x20\n        /* \"#utility.yul\":1591:1609   */\n      add\n        /* \"NftStaking.sol\":438:476  IERC721 public immutable nftCollection */\n      tag_24\n        /* \"#utility.yul\":1456:1698   */\n      jump\n        /* \"NftStaking.sol\":1389:1430  mapping(address => Staker) public stakers */\n    tag_7:\n      tag_30\n      tag_31\n      calldatasize\n      0x04\n      tag_22\n      jump\t// in\n    tag_31:\n      0x02\n      0x20\n      dup2\n      swap1\n      mstore\n      0x00\n      swap2\n      dup3\n      mstore\n      0x40\n      swap1\n      swap2\n      keccak256\n      dup1\n      sload\n      swap2\n      dup2\n      add\n      sload\n      0x03\n      swap1\n      swap2\n      add\n      sload\n      dup4\n      jump\n    tag_30:\n      0x40\n      dup1\n      mload\n        /* \"#utility.yul\":1905:1930   */\n      swap4\n      dup5\n      mstore\n        /* \"#utility.yul\":1961:1963   */\n      0x20\n        /* \"#utility.yul\":1946:1964   */\n      dup5\n      add\n        /* \"#utility.yul\":1939:1973   */\n      swap3\n      swap1\n      swap3\n      mstore\n        /* \"#utility.yul\":1989:2007   */\n      swap1\n      dup3\n      add\n        /* \"#utility.yul\":1982:2016   */\n      mstore\n        /* \"#utility.yul\":1893:1895   */\n      0x60\n        /* \"#utility.yul\":1878:1896   */\n      add\n        /* \"NftStaking.sol\":1389:1430  mapping(address => Staker) public stakers */\n      tag_24\n        /* \"#utility.yul\":1703:2022   */\n      jump\n        /* \"NftStaking.sol\":1555:1603  mapping(uint256 => address) public stakerAddress */\n    tag_8:\n      tag_26\n      tag_36\n      calldatasize\n      0x04\n      tag_16\n      jump\t// in\n    tag_36:\n      mstore(0x20, 0x03)\n      0x00\n      swap1\n      dup2\n      mstore\n      0x40\n      swap1\n      keccak256\n      sload\n      sub(shl(0xa0, 0x01), 0x01)\n      and\n      dup2\n      jump\n        /* \"NftStaking.sol\":1612:2815  function stake(uint256 _tokenId) external nonReentrant {... */\n    tag_9:\n      tag_14\n      tag_41\n      calldatasize\n      0x04\n      tag_16\n      jump\t// in\n    tag_41:\n      tag_42\n      jump\t// in\n        /* \"NftStaking.sol\":395:431  IERC20 public immutable rewardsToken */\n    tag_10:\n      tag_26\n      immutable(\"0x5c4c6aa067b6f8e6cb38e6ab843832a94d1712d661a04d73c517d6a1931a9e5d\")\n      dup2\n      jump\n        /* \"NftStaking.sol\":5099:5295  function availableRewards(address _staker) public view returns (uint256) {... */\n    tag_11:\n      tag_47\n      tag_48\n      calldatasize\n      0x04\n      tag_22\n      jump\t// in\n    tag_48:\n      tag_49\n      jump\t// in\n    tag_47:\n      mload(0x40)\n        /* \"#utility.yul\":2649:2674   */\n      swap1\n      dup2\n      mstore\n        /* \"#utility.yul\":2637:2639   */\n      0x20\n        /* \"#utility.yul\":2622:2640   */\n      add\n        /* \"NftStaking.sol\":5099:5295  function availableRewards(address _staker) public view returns (uint256) {... */\n      tag_24\n        /* \"#utility.yul\":2503:2680   */\n      jump\n        /* \"NftStaking.sol\":2823:4457  function withdraw(uint256 _tokenId) external nonReentrant {... */\n    tag_17:\n        /* \"@openzeppelin/contracts/security/ReentrancyGuard.sol\":2261:2282   */\n      tag_53\n        /* \"@openzeppelin/contracts/security/ReentrancyGuard.sol\":2261:2280   */\n      tag_54\n        /* \"@openzeppelin/contracts/security/ReentrancyGuard.sol\":2261:2282   */\n      jump\t// in\n    tag_53:\n        /* \"NftStaking.sol\":3002:3012  msg.sender */\n      caller\n        /* \"NftStaking.sol\":3029:3030  0 */\n      0x00\n        /* \"NftStaking.sol\":2994:3013  stakers[msg.sender] */\n      swap1\n      dup2\n      mstore\n        /* \"NftStaking.sol\":2994:3001  stakers */\n      0x02\n        /* \"NftStaking.sol\":2994:3013  stakers[msg.sender] */\n      0x20\n      mstore\n      0x40\n      swap1\n      keccak256\n        /* \"NftStaking.sol\":2994:3026  stakers[msg.sender].amountStaked */\n      sload\n        /* \"NftStaking.sol\":2972:3091  require(... */\n      tag_56\n      jumpi\n      mload(0x40)\n      shl(0xe5, 0x461bcd)\n      dup2\n      mstore\n        /* \"#utility.yul\":2887:2889   */\n      0x20\n        /* \"NftStaking.sol\":2972:3091  require(... */\n      0x04\n      dup3\n      add\n        /* \"#utility.yul\":2869:2890   */\n      mstore\n        /* \"#utility.yul\":2926:2928   */\n      0x21\n        /* \"#utility.yul\":2906:2924   */\n      0x24\n      dup3\n      add\n        /* \"#utility.yul\":2899:2929   */\n      mstore\n        /* \"#utility.yul\":2965:2999   */\n      0x596f7520646f206e6f74206861766520616e7920746f6b656e73207374616b65\n        /* \"#utility.yul\":2945:2963   */\n      0x44\n      dup3\n      add\n        /* \"#utility.yul\":2938:3000   */\n      mstore\n      shl(0xfa, 0x19)\n        /* \"#utility.yul\":3016:3034   */\n      0x64\n      dup3\n      add\n        /* \"#utility.yul\":3009:3040   */\n      mstore\n        /* \"#utility.yul\":3057:3076   */\n      0x84\n      add\n        /* \"NftStaking.sol\":2972:3091  require(... */\n    tag_57:\n      mload(0x40)\n      dup1\n      swap2\n      sub\n      swap1\n      revert\n    tag_56:\n        /* \"NftStaking.sol\":3177:3200  stakerAddress[_tokenId] */\n      0x00\n      dup2\n      dup2\n      mstore\n        /* \"NftStaking.sol\":3177:3190  stakerAddress */\n      0x03\n        /* \"NftStaking.sol\":3177:3200  stakerAddress[_tokenId] */\n      0x20\n      mstore\n      0x40\n      swap1\n      keccak256\n      sload\n      sub(shl(0xa0, 0x01), 0x01)\n      and\n        /* \"NftStaking.sol\":3204:3214  msg.sender */\n      caller\n        /* \"NftStaking.sol\":3177:3214  stakerAddress[_tokenId] == msg.sender */\n      eq\n        /* \"NftStaking.sol\":3169:3244  require(stakerAddress[_tokenId] == msg.sender, \"You do not own this token\") */\n      tag_59\n      jumpi\n      mload(0x40)\n      shl(0xe5, 0x461bcd)\n      dup2\n      mstore\n        /* \"#utility.yul\":3289:3291   */\n      0x20\n        /* \"NftStaking.sol\":3169:3244  require(stakerAddress[_tokenId] == msg.sender, \"You do not own this token\") */\n      0x04\n      dup3\n      add\n        /* \"#utility.yul\":3271:3292   */\n      mstore\n        /* \"#utility.yul\":3328:3330   */\n      0x19\n        /* \"#utility.yul\":3308:3326   */\n      0x24\n      dup3\n      add\n        /* \"#utility.yul\":3301:3331   */\n      mstore\n        /* \"#utility.yul\":3367:3394   */\n      0x596f7520646f206e6f74206f776e207468697320746f6b656e00000000000000\n        /* \"#utility.yul\":3347:3365   */\n      0x44\n      dup3\n      add\n        /* \"#utility.yul\":3340:3395   */\n      mstore\n        /* \"#utility.yul\":3412:3430   */\n      0x64\n      add\n        /* \"NftStaking.sol\":3169:3244  require(stakerAddress[_tokenId] == msg.sender, \"You do not own this token\") */\n      tag_57\n        /* \"#utility.yul\":3087:3436   */\n      jump\n        /* \"NftStaking.sol\":3169:3244  require(stakerAddress[_tokenId] == msg.sender, \"You do not own this token\") */\n    tag_59:\n        /* \"NftStaking.sol\":3356:3371  uint256 rewards */\n      0x00\n        /* \"NftStaking.sol\":3374:3402  calculateRewards(msg.sender) */\n      tag_62\n        /* \"NftStaking.sol\":3391:3401  msg.sender */\n      caller\n        /* \"NftStaking.sol\":3374:3390  calculateRewards */\n      tag_63\n        /* \"NftStaking.sol\":3374:3402  calculateRewards(msg.sender) */\n      jump\t// in\n    tag_62:\n        /* \"NftStaking.sol\":3421:3431  msg.sender */\n      caller\n        /* \"NftStaking.sol\":3413:3432  stakers[msg.sender] */\n      0x00\n      swap1\n      dup2\n      mstore\n        /* \"NftStaking.sol\":3413:3420  stakers */\n      0x02\n        /* \"NftStaking.sol\":3413:3432  stakers[msg.sender] */\n      0x20\n      mstore\n      0x40\n      dup2\n      keccak256\n        /* \"NftStaking.sol\":3413:3449  stakers[msg.sender].unclaimedRewards */\n      0x03\n      add\n        /* \"NftStaking.sol\":3413:3460  stakers[msg.sender].unclaimedRewards += rewards */\n      dup1\n      sload\n        /* \"NftStaking.sol\":3356:3402  uint256 rewards = calculateRewards(msg.sender) */\n      swap3\n      swap4\n      pop\n      dup4\n      swap3\n        /* \"NftStaking.sol\":3413:3449  stakers[msg.sender].unclaimedRewards */\n      swap1\n      swap2\n        /* \"NftStaking.sol\":3413:3432  stakers[msg.sender] */\n      swap1\n        /* \"NftStaking.sol\":3413:3460  stakers[msg.sender].unclaimedRewards += rewards */\n      tag_64\n      swap1\n        /* \"NftStaking.sol\":3356:3402  uint256 rewards = calculateRewards(msg.sender) */\n      dup5\n      swap1\n        /* \"NftStaking.sol\":3413:3460  stakers[msg.sender].unclaimedRewards += rewards */\n      tag_65\n      jump\t// in\n    tag_64:\n      swap1\n      swap2\n      sstore\n      pop\n        /* \"NftStaking.sol\":3543:3556  uint256 index */\n      0x00\n      swap1\n      pop\n      dup1\n        /* \"NftStaking.sol\":3572:3796  for (uint256 i = 0; i < stakers[msg.sender].stakedTokens.length; i++) {... */\n    tag_66:\n        /* \"NftStaking.sol\":3604:3614  msg.sender */\n      caller\n        /* \"NftStaking.sol\":3596:3615  stakers[msg.sender] */\n      0x00\n      swap1\n      dup2\n      mstore\n        /* \"NftStaking.sol\":3596:3603  stakers */\n      0x02\n        /* \"NftStaking.sol\":3596:3615  stakers[msg.sender] */\n      0x20\n      mstore\n      0x40\n      swap1\n      keccak256\n        /* \"NftStaking.sol\":3596:3628  stakers[msg.sender].stakedTokens */\n      0x01\n      add\n        /* \"NftStaking.sol\":3596:3635  stakers[msg.sender].stakedTokens.length */\n      sload\n        /* \"NftStaking.sol\":3592:3635  i < stakers[msg.sender].stakedTokens.length */\n      dup2\n      lt\n        /* \"NftStaking.sol\":3572:3796  for (uint256 i = 0; i < stakers[msg.sender].stakedTokens.length; i++) {... */\n      iszero\n      tag_67\n      jumpi\n        /* \"NftStaking.sol\":3668:3678  msg.sender */\n      caller\n        /* \"NftStaking.sol\":3660:3679  stakers[msg.sender] */\n      0x00\n      swap1\n      dup2\n      mstore\n        /* \"NftStaking.sol\":3660:3667  stakers */\n      0x02\n        /* \"NftStaking.sol\":3660:3679  stakers[msg.sender] */\n      0x20\n      mstore\n      0x40\n      swap1\n      keccak256\n        /* \"NftStaking.sol\":3660:3692  stakers[msg.sender].stakedTokens */\n      0x01\n      add\n        /* \"NftStaking.sol\":3660:3695  stakers[msg.sender].stakedTokens[i] */\n      dup1\n      sload\n        /* \"NftStaking.sol\":3707:3715  _tokenId */\n      dup6\n      swap2\n        /* \"NftStaking.sol\":3660:3692  stakers[msg.sender].stakedTokens */\n      swap1\n        /* \"NftStaking.sol\":3693:3694  i */\n      dup4\n      swap1\n        /* \"NftStaking.sol\":3660:3695  stakers[msg.sender].stakedTokens[i] */\n      dup2\n      lt\n      tag_70\n      jumpi\n      tag_70\n      tag_71\n      jump\t// in\n    tag_70:\n      swap1\n      0x00\n      mstore\n      keccak256(0x00, 0x20)\n      swap1\n      0x02\n      mul\n      add\n        /* \"NftStaking.sol\":3660:3703  stakers[msg.sender].stakedTokens[i].tokenId */\n      0x01\n      add\n      sload\n        /* \"NftStaking.sol\":3660:3715  stakers[msg.sender].stakedTokens[i].tokenId == _tokenId */\n      sub\n        /* \"NftStaking.sol\":3657:3785  if(stakers[msg.sender].stakedTokens[i].tokenId == _tokenId) {... */\n      tag_73\n      jumpi\n        /* \"NftStaking.sol\":3744:3745  i */\n      dup1\n        /* \"NftStaking.sol\":3736:3745  index = i */\n      swap2\n      pop\n        /* \"NftStaking.sol\":3764:3769  break */\n      jump(tag_67)\n        /* \"NftStaking.sol\":3657:3785  if(stakers[msg.sender].stakedTokens[i].tokenId == _tokenId) {... */\n    tag_73:\n        /* \"NftStaking.sol\":3637:3640  i++ */\n      dup1\n      tag_74\n      dup2\n      tag_75\n      jump\t// in\n    tag_74:\n      swap2\n      pop\n      pop\n        /* \"NftStaking.sol\":3572:3796  for (uint256 i = 0; i < stakers[msg.sender].stakedTokens.length; i++) {... */\n      jump(tag_66)\n    tag_67:\n      pop\n        /* \"NftStaking.sol\":3873:3883  msg.sender */\n      caller\n        /* \"NftStaking.sol\":3922:3923  0 */\n      0x00\n        /* \"NftStaking.sol\":3865:3884  stakers[msg.sender] */\n      swap1\n      dup2\n      mstore\n        /* \"NftStaking.sol\":3865:3872  stakers */\n      0x02\n        /* \"NftStaking.sol\":3865:3884  stakers[msg.sender] */\n      0x20\n      mstore\n      0x40\n      dup2\n      keccak256\n        /* \"NftStaking.sol\":3865:3897  stakers[msg.sender].stakedTokens */\n      0x01\n      add\n        /* \"NftStaking.sol\":3865:3904  stakers[msg.sender].stakedTokens[index] */\n      dup1\n      sload\n        /* \"NftStaking.sol\":3898:3903  index */\n      dup4\n      swap1\n        /* \"NftStaking.sol\":3865:3904  stakers[msg.sender].stakedTokens[index] */\n      dup2\n      lt\n      tag_77\n      jumpi\n      tag_77\n      tag_71\n      jump\t// in\n    tag_77:\n      0x00\n      swap2\n      dup3\n      mstore\n      0x20\n      dup1\n      dup4\n      keccak256\n      0x02\n      swap3\n      dup4\n      mul\n      add\n        /* \"NftStaking.sol\":3865:3924  stakers[msg.sender].stakedTokens[index].staker = address(0) */\n      dup1\n      sload\n      not(sub(shl(0xa0, 0x01), 0x01))\n      and\n      sub(shl(0xa0, 0x01), 0x01)\n      swap6\n      swap1\n      swap6\n      and\n      swap5\n      swap1\n      swap5\n      or\n      swap1\n      swap4\n      sstore\n        /* \"NftStaking.sol\":4001:4011  msg.sender */\n      caller\n        /* \"NftStaking.sol\":3993:4012  stakers[msg.sender] */\n      dup3\n      mstore\n      swap1\n      swap2\n      mstore\n      0x40\n      dup2\n      keccak256\n        /* \"NftStaking.sol\":3993:4027  stakers[msg.sender].amountStaked-- */\n      dup1\n      sload\n      swap2\n      tag_79\n      dup4\n      tag_80\n      jump\t// in\n    tag_79:\n      swap1\n      swap2\n      sstore\n      pop\n      pop\n        /* \"NftStaking.sol\":4185:4186  0 */\n      0x00\n        /* \"NftStaking.sol\":4151:4174  stakerAddress[_tokenId] */\n      dup4\n      dup2\n      mstore\n        /* \"NftStaking.sol\":4151:4164  stakerAddress */\n      0x03\n        /* \"NftStaking.sol\":4151:4174  stakerAddress[_tokenId] */\n      0x20\n      mstore\n      0x40\n      swap1\n      dup2\n      swap1\n      keccak256\n        /* \"NftStaking.sol\":4151:4187  stakerAddress[_tokenId] = address(0) */\n      dup1\n      sload\n      not(sub(shl(0xa0, 0x01), 0x01))\n      and\n      swap1\n      sstore\n        /* \"NftStaking.sol\":4253:4316  nftCollection.transferFrom(address(this), msg.sender, _tokenId) */\n      mload\n      shl(0xe0, 0x23b872dd)\n      dup2\n      mstore\n        /* \"NftStaking.sol\":4288:4292  this */\n      address\n        /* \"NftStaking.sol\":4253:4316  nftCollection.transferFrom(address(this), msg.sender, _tokenId) */\n      0x04\n      dup3\n      add\n        /* \"#utility.yul\":4379:4413   */\n      mstore\n        /* \"NftStaking.sol\":4295:4305  msg.sender */\n      caller\n        /* \"#utility.yul\":4429:4447   */\n      0x24\n      dup3\n      add\n        /* \"#utility.yul\":4422:4465   */\n      mstore\n        /* \"#utility.yul\":4481:4499   */\n      0x44\n      dup2\n      add\n        /* \"#utility.yul\":4474:4508   */\n      dup5\n      swap1\n      mstore\n      sub(shl(0xa0, 0x01), 0x01)\n        /* \"NftStaking.sol\":4253:4266  nftCollection */\n      immutable(\"0x8e8fab5f003314da8d1873ea7720e8d9f47650136d916064d1edb8a11d682624\")\n        /* \"NftStaking.sol\":4253:4279  nftCollection.transferFrom */\n      and\n      swap1\n      0x23b872dd\n      swap1\n        /* \"#utility.yul\":4291:4309   */\n      0x64\n      add\n        /* \"NftStaking.sol\":4253:4316  nftCollection.transferFrom(address(this), msg.sender, _tokenId) */\n      0x00\n      mload(0x40)\n      dup1\n      dup4\n      sub\n      dup2\n      0x00\n      dup8\n      dup1\n      extcodesize\n      iszero\n      dup1\n      iszero\n      tag_83\n      jumpi\n      0x00\n      dup1\n      revert\n    tag_83:\n      pop\n      gas\n      call\n      iszero\n      dup1\n      iszero\n      tag_85\n      jumpi\n      returndatasize\n      0x00\n      dup1\n      returndatacopy\n      revert(0x00, returndatasize)\n    tag_85:\n      pop\n      pop\n        /* \"NftStaking.sol\":4403:4413  msg.sender */\n      caller\n        /* \"NftStaking.sol\":4395:4414  stakers[msg.sender] */\n      0x00\n      swap1\n      dup2\n      mstore\n        /* \"NftStaking.sol\":4395:4402  stakers */\n      0x02\n        /* \"NftStaking.sol\":4395:4414  stakers[msg.sender] */\n      0x20\n      dup2\n      swap1\n      mstore\n      0x40\n      swap1\n      swap2\n      keccak256\n        /* \"NftStaking.sol\":4434:4449  block.timestamp */\n      timestamp\n        /* \"NftStaking.sol\":4395:4431  stakers[msg.sender].timeOfLastUpdate */\n      swap2\n      add\n        /* \"NftStaking.sol\":4395:4449  stakers[msg.sender].timeOfLastUpdate = block.timestamp */\n      sstore\n      pop\n        /* \"@openzeppelin/contracts/security/ReentrancyGuard.sol\":2303:2323   */\n      tag_86\n      swap3\n      pop\n        /* \"@openzeppelin/contracts/security/ReentrancyGuard.sol\":2303:2321   */\n      tag_87\n      swap2\n      pop\n      pop\n        /* \"@openzeppelin/contracts/security/ReentrancyGuard.sol\":2303:2323   */\n      jump\t// in\n    tag_86:\n        /* \"NftStaking.sol\":2823:4457  function withdraw(uint256 _tokenId) external nonReentrant {... */\n      pop\n      jump\t// out\n        /* \"NftStaking.sol\":4465:4844  function claimRewards() external {... */\n    tag_19:\n        /* \"NftStaking.sol\":4566:4576  msg.sender */\n      caller\n        /* \"NftStaking.sol\":4509:4524  uint256 rewards */\n      0x00\n        /* \"NftStaking.sol\":4558:4577  stakers[msg.sender] */\n      dup2\n      dup2\n      mstore\n        /* \"NftStaking.sol\":4558:4565  stakers */\n      0x02\n        /* \"NftStaking.sol\":4558:4577  stakers[msg.sender] */\n      0x20\n      mstore\n      0x40\n      dup2\n      keccak256\n        /* \"NftStaking.sol\":4558:4594  stakers[msg.sender].unclaimedRewards */\n      0x03\n      add\n      sload\n        /* \"NftStaking.sol\":4509:4524  uint256 rewards */\n      swap1\n      swap2\n        /* \"NftStaking.sol\":4527:4555  calculateRewards(msg.sender) */\n      tag_89\n      swap1\n        /* \"NftStaking.sol\":4527:4543  calculateRewards */\n      tag_63\n        /* \"NftStaking.sol\":4527:4555  calculateRewards(msg.sender) */\n      jump\t// in\n    tag_89:\n        /* \"NftStaking.sol\":4527:4594  calculateRewards(msg.sender) + stakers[msg.sender].unclaimedRewards */\n      tag_90\n      swap2\n      swap1\n      tag_65\n      jump\t// in\n    tag_90:\n        /* \"NftStaking.sol\":4509:4594  uint256 rewards = calculateRewards(msg.sender) + stakers[msg.sender].unclaimedRewards */\n      swap1\n      pop\n        /* \"NftStaking.sol\":4625:4626  0 */\n      0x00\n        /* \"NftStaking.sol\":4615:4622  rewards */\n      dup2\n        /* \"NftStaking.sol\":4615:4626  rewards > 0 */\n      gt\n        /* \"NftStaking.sol\":4607:4659  require(rewards > 0, \"You have no rewards to claim\") */\n      tag_91\n      jumpi\n      mload(0x40)\n      shl(0xe5, 0x461bcd)\n      dup2\n      mstore\n        /* \"#utility.yul\":4721:4723   */\n      0x20\n        /* \"NftStaking.sol\":4607:4659  require(rewards > 0, \"You have no rewards to claim\") */\n      0x04\n      dup3\n      add\n        /* \"#utility.yul\":4703:4724   */\n      mstore\n        /* \"#utility.yul\":4760:4762   */\n      0x1c\n        /* \"#utility.yul\":4740:4758   */\n      0x24\n      dup3\n      add\n        /* \"#utility.yul\":4733:4763   */\n      mstore\n        /* \"#utility.yul\":4799:4829   */\n      0x596f752068617665206e6f207265776172647320746f20636c61696d00000000\n        /* \"#utility.yul\":4779:4797   */\n      0x44\n      dup3\n      add\n        /* \"#utility.yul\":4772:4830   */\n      mstore\n        /* \"#utility.yul\":4847:4865   */\n      0x64\n      add\n        /* \"NftStaking.sol\":4607:4659  require(rewards > 0, \"You have no rewards to claim\") */\n      tag_57\n        /* \"#utility.yul\":4519:4871   */\n      jump\n        /* \"NftStaking.sol\":4607:4659  require(rewards > 0, \"You have no rewards to claim\") */\n    tag_91:\n        /* \"NftStaking.sol\":4680:4690  msg.sender */\n      caller\n        /* \"NftStaking.sol\":4672:4691  stakers[msg.sender] */\n      0x00\n      dup2\n      dup2\n      mstore\n        /* \"NftStaking.sol\":4672:4679  stakers */\n      0x02\n        /* \"NftStaking.sol\":4672:4691  stakers[msg.sender] */\n      0x20\n      dup2\n      swap1\n      mstore\n      0x40\n      dup3\n      keccak256\n        /* \"NftStaking.sol\":4711:4726  block.timestamp */\n      timestamp\n        /* \"NftStaking.sol\":4672:4708  stakers[msg.sender].timeOfLastUpdate */\n      swap2\n      dup2\n      add\n        /* \"NftStaking.sol\":4672:4726  stakers[msg.sender].timeOfLastUpdate = block.timestamp */\n      swap2\n      swap1\n      swap2\n      sstore\n        /* \"NftStaking.sol\":4737:4773  stakers[msg.sender].unclaimedRewards */\n      0x03\n      add\n        /* \"NftStaking.sol\":4737:4777  stakers[msg.sender].unclaimedRewards = 0 */\n      sstore\n        /* \"NftStaking.sol\":4790:4836  rewardsToken.safeTransfer(msg.sender, rewards) */\n      tag_86\n      swap1\n        /* \"NftStaking.sol\":4790:4802  rewardsToken */\n      immutable(\"0x5c4c6aa067b6f8e6cb38e6ab843832a94d1712d661a04d73c517d6a1931a9e5d\")\n      sub(shl(0xa0, 0x01), 0x01)\n        /* \"NftStaking.sol\":4790:4815  rewardsToken.safeTransfer */\n      and\n      swap1\n        /* \"NftStaking.sol\":4828:4835  rewards */\n      dup4\n        /* \"NftStaking.sol\":4790:4815  rewardsToken.safeTransfer */\n      tag_95\n        /* \"NftStaking.sol\":4790:4836  rewardsToken.safeTransfer(msg.sender, rewards) */\n      jump\t// in\n        /* \"NftStaking.sol\":5303:6125  function getStakedTokens(address _user) public view returns (StakedToken[] memory) {... */\n    tag_23:\n      sub(shl(0xa0, 0x01), 0x01)\n        /* \"NftStaking.sol\":5440:5454  stakers[_user] */\n      dup2\n      and\n        /* \"NftStaking.sol\":5470:5471  0 */\n      0x00\n        /* \"NftStaking.sol\":5440:5454  stakers[_user] */\n      swap1\n      dup2\n      mstore\n        /* \"NftStaking.sol\":5440:5447  stakers */\n      0x02\n        /* \"NftStaking.sol\":5440:5454  stakers[_user] */\n      0x20\n      mstore\n      0x40\n      swap1\n      keccak256\n        /* \"NftStaking.sol\":5440:5467  stakers[_user].amountStaked */\n      sload\n        /* \"NftStaking.sol\":5364:5384  StakedToken[] memory */\n      0x60\n      swap1\n        /* \"NftStaking.sol\":5440:5471  stakers[_user].amountStaked > 0 */\n      iszero\n        /* \"NftStaking.sol\":5436:6118  if (stakers[_user].amountStaked > 0) {... */\n      tag_97\n      jumpi\n      sub(shl(0xa0, 0x01), 0x01)\n        /* \"NftStaking.sol\":5636:5650  stakers[_user] */\n      dup3\n      and\n        /* \"NftStaking.sol\":5581:5615  StakedToken[] memory _stakedTokens */\n      0x00\n        /* \"NftStaking.sol\":5636:5650  stakers[_user] */\n      swap1\n      dup2\n      mstore\n        /* \"NftStaking.sol\":5636:5643  stakers */\n      0x02\n        /* \"NftStaking.sol\":5636:5650  stakers[_user] */\n      0x20\n      mstore\n      0x40\n      dup2\n      keccak256\n        /* \"NftStaking.sol\":5636:5663  stakers[_user].amountStaked */\n      sload\n        /* \"NftStaking.sol\":5618:5664  new StakedToken[](stakers[_user].amountStaked) */\n      0xffffffffffffffff\n      dup2\n      gt\n      iszero\n      tag_99\n      jumpi\n      tag_99\n      tag_100\n      jump\t// in\n    tag_99:\n      mload(0x40)\n      swap1\n      dup1\n      dup3\n      mstore\n      dup1\n      0x20\n      mul\n      0x20\n      add\n      dup3\n      add\n      0x40\n      mstore\n      dup1\n      iszero\n      tag_101\n      jumpi\n      dup2\n      0x20\n      add\n    tag_102:\n      0x40\n      dup1\n      mload\n      dup1\n      dup3\n      add\n      swap1\n      swap2\n      mstore\n      0x00\n      dup1\n      dup3\n      mstore\n      0x20\n      dup3\n      add\n      mstore\n      dup2\n      mstore\n      0x20\n      add\n      swap1\n      0x01\n      swap1\n      sub\n      swap1\n      dup2\n      tag_102\n      jumpi\n      swap1\n      pop\n    tag_101:\n      pop\n        /* \"NftStaking.sol\":5581:5664  StakedToken[] memory _stakedTokens = new StakedToken[](stakers[_user].amountStaked) */\n      swap1\n      pop\n        /* \"NftStaking.sol\":5679:5693  uint256 _index */\n      0x00\n        /* \"NftStaking.sol\":5718:5727  uint256 j */\n      dup1\n        /* \"NftStaking.sol\":5714:5999  for(uint256 j = 0; j < stakers[_user].stakedTokens.length; j++) {... */\n    tag_105:\n      sub(shl(0xa0, 0x01), 0x01)\n        /* \"NftStaking.sol\":5737:5751  stakers[_user] */\n      dup6\n      and\n      0x00\n      swap1\n      dup2\n      mstore\n        /* \"NftStaking.sol\":5737:5744  stakers */\n      0x02\n        /* \"NftStaking.sol\":5737:5751  stakers[_user] */\n      0x20\n      mstore\n      0x40\n      swap1\n      keccak256\n        /* \"NftStaking.sol\":5737:5764  stakers[_user].stakedTokens */\n      0x01\n      add\n        /* \"NftStaking.sol\":5737:5771  stakers[_user].stakedTokens.length */\n      sload\n        /* \"NftStaking.sol\":5733:5771  j < stakers[_user].stakedTokens.length */\n      dup2\n      lt\n        /* \"NftStaking.sol\":5714:5999  for(uint256 j = 0; j < stakers[_user].stakedTokens.length; j++) {... */\n      iszero\n      tag_106\n      jumpi\n      sub(shl(0xa0, 0x01), 0x01)\n        /* \"NftStaking.sol\":5801:5815  stakers[_user] */\n      dup6\n      and\n        /* \"NftStaking.sol\":5851:5852  0 */\n      0x00\n        /* \"NftStaking.sol\":5801:5815  stakers[_user] */\n      swap1\n      dup2\n      mstore\n        /* \"NftStaking.sol\":5801:5808  stakers */\n      0x02\n        /* \"NftStaking.sol\":5801:5815  stakers[_user] */\n      0x20\n      mstore\n      0x40\n      dup2\n      keccak256\n        /* \"NftStaking.sol\":5801:5828  stakers[_user].stakedTokens */\n      0x01\n      add\n        /* \"NftStaking.sol\":5801:5831  stakers[_user].stakedTokens[j] */\n      dup1\n      sload\n        /* \"NftStaking.sol\":5829:5830  j */\n      dup4\n      swap1\n        /* \"NftStaking.sol\":5801:5831  stakers[_user].stakedTokens[j] */\n      dup2\n      lt\n      tag_109\n      jumpi\n      tag_109\n      tag_71\n      jump\t// in\n    tag_109:\n      0x00\n      swap2\n      dup3\n      mstore\n      0x20\n      swap1\n      swap2\n      keccak256\n      0x02\n      swap1\n      swap2\n      mul\n      add\n        /* \"NftStaking.sol\":5801:5838  stakers[_user].stakedTokens[j].staker */\n      sload\n      sub(shl(0xa0, 0x01), 0x01)\n      and\n        /* \"NftStaking.sol\":5801:5854  stakers[_user].stakedTokens[j].staker != (address(0)) */\n      eq\n        /* \"NftStaking.sol\":5797:5984  if (stakers[_user].stakedTokens[j].staker != (address(0))) {... */\n      tag_111\n      jumpi\n      sub(shl(0xa0, 0x01), 0x01)\n        /* \"NftStaking.sol\":5903:5917  stakers[_user] */\n      dup6\n      and\n      0x00\n      swap1\n      dup2\n      mstore\n        /* \"NftStaking.sol\":5903:5910  stakers */\n      0x02\n        /* \"NftStaking.sol\":5903:5917  stakers[_user] */\n      0x20\n      mstore\n      0x40\n      swap1\n      keccak256\n        /* \"NftStaking.sol\":5903:5930  stakers[_user].stakedTokens */\n      0x01\n      add\n        /* \"NftStaking.sol\":5903:5933  stakers[_user].stakedTokens[j] */\n      dup1\n      sload\n        /* \"NftStaking.sol\":5931:5932  j */\n      dup3\n      swap1\n        /* \"NftStaking.sol\":5903:5933  stakers[_user].stakedTokens[j] */\n      dup2\n      lt\n      tag_113\n      jumpi\n      tag_113\n      tag_71\n      jump\t// in\n    tag_113:\n      0x00\n      swap2\n      dup3\n      mstore\n      0x20\n      swap2\n      dup3\n      swap1\n      keccak256\n        /* \"NftStaking.sol\":5879:5933  _stakedTokens[_index] = stakers[_user].stakedTokens[j] */\n      0x40\n      dup1\n      mload\n      dup1\n      dup3\n      add\n      swap1\n      swap2\n      mstore\n        /* \"NftStaking.sol\":5903:5933  stakers[_user].stakedTokens[j] */\n      0x02\n      swap1\n      swap3\n      mul\n      add\n        /* \"NftStaking.sol\":5879:5933  _stakedTokens[_index] = stakers[_user].stakedTokens[j] */\n      dup1\n      sload\n      sub(shl(0xa0, 0x01), 0x01)\n      and\n      dup3\n      mstore\n      0x01\n      add\n      sload\n      swap2\n      dup2\n      add\n      swap2\n      swap1\n      swap2\n      mstore\n        /* \"NftStaking.sol\":5879:5900  _stakedTokens[_index] */\n      dup4\n      mload\n        /* \"NftStaking.sol\":5879:5892  _stakedTokens */\n      dup5\n      swap1\n        /* \"NftStaking.sol\":5893:5899  _index */\n      dup5\n      swap1\n        /* \"NftStaking.sol\":5879:5900  _stakedTokens[_index] */\n      dup2\n      lt\n      tag_116\n      jumpi\n      tag_116\n      tag_71\n      jump\t// in\n    tag_116:\n      0x20\n      mul\n      0x20\n      add\n      add\n        /* \"NftStaking.sol\":5879:5933  _stakedTokens[_index] = stakers[_user].stakedTokens[j] */\n      dup2\n      swap1\n      mstore\n      pop\n        /* \"NftStaking.sol\":5956:5964  _index++ */\n      dup2\n      dup1\n      tag_117\n      swap1\n      tag_75\n      jump\t// in\n    tag_117:\n      swap3\n      pop\n      pop\n        /* \"NftStaking.sol\":5797:5984  if (stakers[_user].stakedTokens[j].staker != (address(0))) {... */\n    tag_111:\n        /* \"NftStaking.sol\":5773:5776  j++ */\n      dup1\n      tag_118\n      dup2\n      tag_75\n      jump\t// in\n    tag_118:\n      swap2\n      pop\n      pop\n        /* \"NftStaking.sol\":5714:5999  for(uint256 j = 0; j < stakers[_user].stakedTokens.length; j++) {... */\n      jump(tag_105)\n    tag_106:\n      pop\n        /* \"NftStaking.sol\":6022:6035  _stakedTokens */\n      swap1\n      swap4\n        /* \"NftStaking.sol\":5303:6125  function getStakedTokens(address _user) public view returns (StakedToken[] memory) {... */\n      swap3\n      pop\n      pop\n      pop\n      jump\t// out\n        /* \"NftStaking.sol\":5436:6118  if (stakers[_user].amountStaked > 0) {... */\n    tag_97:\n        /* \"NftStaking.sol\":6086:6106  new StakedToken[](0) */\n      0x40\n      dup1\n      mload\n        /* \"NftStaking.sol\":6104:6105  0 */\n      0x00\n        /* \"NftStaking.sol\":6086:6106  new StakedToken[](0) */\n      dup1\n      dup3\n      mstore\n      0x20\n      dup3\n      add\n      swap1\n      swap3\n      mstore\n      swap1\n      jump(tag_122)\n    tag_123:\n      0x40\n      dup1\n      mload\n      dup1\n      dup3\n      add\n      swap1\n      swap2\n      mstore\n      0x00\n      dup1\n      dup3\n      mstore\n      0x20\n      dup3\n      add\n      mstore\n      dup2\n      mstore\n      0x20\n      add\n      swap1\n      0x01\n      swap1\n      sub\n      swap1\n      dup2\n      tag_123\n      jumpi\n      swap1\n      pop\n    tag_122:\n      pop\n        /* \"NftStaking.sol\":6079:6106  return new StakedToken[](0) */\n      swap3\n        /* \"NftStaking.sol\":5303:6125  function getStakedTokens(address _user) public view returns (StakedToken[] memory) {... */\n      swap2\n      pop\n      pop\n      jump\t// out\n        /* \"NftStaking.sol\":1612:2815  function stake(uint256 _tokenId) external nonReentrant {... */\n    tag_42:\n        /* \"@openzeppelin/contracts/security/ReentrancyGuard.sol\":2261:2282   */\n      tag_126\n        /* \"@openzeppelin/contracts/security/ReentrancyGuard.sol\":2261:2280   */\n      tag_54\n        /* \"@openzeppelin/contracts/security/ReentrancyGuard.sol\":2261:2282   */\n      jump\t// in\n    tag_126:\n        /* \"NftStaking.sol\":1780:1790  msg.sender */\n      caller\n        /* \"NftStaking.sol\":1807:1808  0 */\n      0x00\n        /* \"NftStaking.sol\":1772:1791  stakers[msg.sender] */\n      swap1\n      dup2\n      mstore\n        /* \"NftStaking.sol\":1772:1779  stakers */\n      0x02\n        /* \"NftStaking.sol\":1772:1791  stakers[msg.sender] */\n      0x20\n      mstore\n      0x40\n      swap1\n      keccak256\n        /* \"NftStaking.sol\":1772:1804  stakers[msg.sender].amountStaked */\n      sload\n        /* \"NftStaking.sol\":1772:1808  stakers[msg.sender].amountStaked > 0 */\n      iszero\n        /* \"NftStaking.sol\":1769:1945  if(stakers[msg.sender].amountStaked > 0) {... */\n      tag_128\n      jumpi\n        /* \"NftStaking.sol\":1825:1840  uint256 rewards */\n      0x00\n        /* \"NftStaking.sol\":1843:1871  calculateRewards(msg.sender) */\n      tag_129\n        /* \"NftStaking.sol\":1860:1870  msg.sender */\n      caller\n        /* \"NftStaking.sol\":1843:1859  calculateRewards */\n      tag_63\n        /* \"NftStaking.sol\":1843:1871  calculateRewards(msg.sender) */\n      jump\t// in\n    tag_129:\n        /* \"NftStaking.sol\":1894:1904  msg.sender */\n      caller\n        /* \"NftStaking.sol\":1886:1905  stakers[msg.sender] */\n      0x00\n      swap1\n      dup2\n      mstore\n        /* \"NftStaking.sol\":1886:1893  stakers */\n      0x02\n        /* \"NftStaking.sol\":1886:1905  stakers[msg.sender] */\n      0x20\n      mstore\n      0x40\n      dup2\n      keccak256\n        /* \"NftStaking.sol\":1886:1922  stakers[msg.sender].unclaimedRewards */\n      0x03\n      add\n        /* \"NftStaking.sol\":1886:1933  stakers[msg.sender].unclaimedRewards += rewards */\n      dup1\n      sload\n        /* \"NftStaking.sol\":1825:1871  uint256 rewards = calculateRewards(msg.sender) */\n      swap3\n      swap4\n      pop\n      dup4\n      swap3\n        /* \"NftStaking.sol\":1886:1922  stakers[msg.sender].unclaimedRewards */\n      swap1\n      swap2\n        /* \"NftStaking.sol\":1886:1905  stakers[msg.sender] */\n      swap1\n        /* \"NftStaking.sol\":1886:1933  stakers[msg.sender].unclaimedRewards += rewards */\n      tag_130\n      swap1\n        /* \"NftStaking.sol\":1825:1871  uint256 rewards = calculateRewards(msg.sender) */\n      dup5\n      swap1\n        /* \"NftStaking.sol\":1886:1933  stakers[msg.sender].unclaimedRewards += rewards */\n      tag_65\n      jump\t// in\n    tag_130:\n      swap1\n      swap2\n      sstore\n      pop\n      pop\n      pop\n        /* \"NftStaking.sol\":1769:1945  if(stakers[msg.sender].amountStaked > 0) {... */\n    tag_128:\n        /* \"NftStaking.sol\":2027:2058  nftCollection.ownerOf(_tokenId) */\n      mload(0x40)\n      shl(0xe1, 0x31a9108f)\n      dup2\n      mstore\n      0x04\n      dup2\n      add\n        /* \"#utility.yul\":2649:2674   */\n      dup3\n      swap1\n      mstore\n        /* \"NftStaking.sol\":2062:2072  msg.sender */\n      caller\n      swap1\n      sub(shl(0xa0, 0x01), 0x01)\n        /* \"NftStaking.sol\":2027:2040  nftCollection */\n      immutable(\"0x8e8fab5f003314da8d1873ea7720e8d9f47650136d916064d1edb8a11d682624\")\n        /* \"NftStaking.sol\":2027:2048  nftCollection.ownerOf */\n      and\n      swap1\n      0x6352211e\n      swap1\n        /* \"#utility.yul\":2622:2640   */\n      0x24\n      add\n        /* \"NftStaking.sol\":2027:2058  nftCollection.ownerOf(_tokenId) */\n      0x20\n      mload(0x40)\n      dup1\n      dup4\n      sub\n      dup2\n      dup7\n      gas\n      staticcall\n      iszero\n      dup1\n      iszero\n      tag_133\n      jumpi\n      returndatasize\n      0x00\n      dup1\n      returndatacopy\n      revert(0x00, returndatasize)\n    tag_133:\n      pop\n      pop\n      pop\n      pop\n      mload(0x40)\n      returndatasize\n      not(0x1f)\n      0x1f\n      dup3\n      add\n      and\n      dup3\n      add\n      dup1\n      0x40\n      mstore\n      pop\n      dup2\n      add\n      swap1\n      tag_134\n      swap2\n      swap1\n      tag_135\n      jump\t// in\n    tag_134:\n      sub(shl(0xa0, 0x01), 0x01)\n        /* \"NftStaking.sol\":2027:2072  nftCollection.ownerOf(_tokenId) == msg.sender */\n      and\n      eq\n        /* \"NftStaking.sol\":2019:2102  require(nftCollection.ownerOf(_tokenId) == msg.sender, \"You do not own this token\") */\n      tag_136\n      jumpi\n      mload(0x40)\n      shl(0xe5, 0x461bcd)\n      dup2\n      mstore\n        /* \"#utility.yul\":3289:3291   */\n      0x20\n        /* \"NftStaking.sol\":2019:2102  require(nftCollection.ownerOf(_tokenId) == msg.sender, \"You do not own this token\") */\n      0x04\n      dup3\n      add\n        /* \"#utility.yul\":3271:3292   */\n      mstore\n        /* \"#utility.yul\":3328:3330   */\n      0x19\n        /* \"#utility.yul\":3308:3326   */\n      0x24\n      dup3\n      add\n        /* \"#utility.yul\":3301:3331   */\n      mstore\n        /* \"#utility.yul\":3367:3394   */\n      0x596f7520646f206e6f74206f776e207468697320746f6b656e00000000000000\n        /* \"#utility.yul\":3347:3365   */\n      0x44\n      dup3\n      add\n        /* \"#utility.yul\":3340:3395   */\n      mstore\n        /* \"#utility.yul\":3412:3430   */\n      0x64\n      add\n        /* \"NftStaking.sol\":2019:2102  require(nftCollection.ownerOf(_tokenId) == msg.sender, \"You do not own this token\") */\n      tag_57\n        /* \"#utility.yul\":3087:3436   */\n      jump\n        /* \"NftStaking.sol\":2019:2102  require(nftCollection.ownerOf(_tokenId) == msg.sender, \"You do not own this token\") */\n    tag_136:\n        /* \"NftStaking.sol\":2168:2231  nftCollection.transferFrom(msg.sender, address(this), _tokenId) */\n      mload(0x40)\n      shl(0xe0, 0x23b872dd)\n      dup2\n      mstore\n        /* \"NftStaking.sol\":2195:2205  msg.sender */\n      caller\n        /* \"NftStaking.sol\":2168:2231  nftCollection.transferFrom(msg.sender, address(this), _tokenId) */\n      0x04\n      dup3\n      add\n        /* \"#utility.yul\":4379:4413   */\n      mstore\n        /* \"NftStaking.sol\":2215:2219  this */\n      address\n        /* \"#utility.yul\":4429:4447   */\n      0x24\n      dup3\n      add\n        /* \"#utility.yul\":4422:4465   */\n      mstore\n        /* \"#utility.yul\":4481:4499   */\n      0x44\n      dup2\n      add\n        /* \"#utility.yul\":4474:4508   */\n      dup3\n      swap1\n      mstore\n        /* \"NftStaking.sol\":2168:2181  nftCollection */\n      immutable(\"0x8e8fab5f003314da8d1873ea7720e8d9f47650136d916064d1edb8a11d682624\")\n      sub(shl(0xa0, 0x01), 0x01)\n        /* \"NftStaking.sol\":2168:2194  nftCollection.transferFrom */\n      and\n      swap1\n      0x23b872dd\n      swap1\n        /* \"#utility.yul\":4291:4309   */\n      0x64\n      add\n        /* \"NftStaking.sol\":2168:2231  nftCollection.transferFrom(msg.sender, address(this), _tokenId) */\n      0x00\n      mload(0x40)\n      dup1\n      dup4\n      sub\n      dup2\n      0x00\n      dup8\n      dup1\n      extcodesize\n      iszero\n      dup1\n      iszero\n      tag_139\n      jumpi\n      0x00\n      dup1\n      revert\n    tag_139:\n      pop\n      gas\n      call\n      iszero\n      dup1\n      iszero\n      tag_141\n      jumpi\n      returndatasize\n      0x00\n      dup1\n      returndatacopy\n      revert(0x00, returndatasize)\n    tag_141:\n      pop\n      pop\n        /* \"NftStaking.sol\":2308:2341  StakedToken(msg.sender, _tokenId) */\n      0x40\n      dup1\n      mload\n      dup1\n      dup3\n      add\n      dup3\n      mstore\n        /* \"NftStaking.sol\":2320:2330  msg.sender */\n      caller\n        /* \"NftStaking.sol\":2308:2341  StakedToken(msg.sender, _tokenId) */\n      dup1\n      dup3\n      mstore\n      0x20\n      dup1\n      dup4\n      add\n      dup8\n      dup2\n      mstore\n      0x00\n        /* \"NftStaking.sol\":2406:2425  stakers[msg.sender] */\n      dup4\n      dup2\n      mstore\n        /* \"NftStaking.sol\":2406:2413  stakers */\n      0x02\n        /* \"NftStaking.sol\":2406:2425  stakers[msg.sender] */\n      dup1\n      dup5\n      mstore\n      swap6\n      dup2\n      keccak256\n        /* \"NftStaking.sol\":2406:2438  stakers[msg.sender].stakedTokens */\n      0x01\n      dup1\n      dup3\n      add\n        /* \"NftStaking.sol\":2406:2456  stakers[msg.sender].stakedTokens.push(stakedToken) */\n      dup1\n      sload\n      dup1\n      dup4\n      add\n      dup3\n      sstore\n      swap1\n      dup5\n      mstore\n      swap5\n      dup4\n      keccak256\n      dup8\n      mload\n      swap6\n      swap1\n      swap9\n      mul\n      swap1\n      swap8\n      add\n      dup1\n      sload\n      not(sub(shl(0xa0, 0x01), 0x01))\n      and\n      sub(shl(0xa0, 0x01), 0x01)\n      swap1\n      swap6\n      and\n      swap5\n      swap1\n      swap5\n      or\n      dup5\n      sstore\n      swap2\n      mload\n      swap3\n      swap1\n      swap6\n      add\n      swap2\n      swap1\n      swap2\n      sstore\n        /* \"NftStaking.sol\":2525:2544  stakers[msg.sender] */\n      swap1\n      dup4\n      mstore\n        /* \"NftStaking.sol\":2525:2559  stakers[msg.sender].amountStaked++ */\n      dup1\n      sload\n        /* \"NftStaking.sol\":2308:2341  StakedToken(msg.sender, _tokenId) */\n      swap2\n      swap5\n      pop\n        /* \"NftStaking.sol\":2525:2559  stakers[msg.sender].amountStaked++ */\n      swap1\n      swap3\n      pop\n        /* \"NftStaking.sol\":2406:2425  stakers[msg.sender] */\n      swap1\n        /* \"NftStaking.sol\":2525:2559  stakers[msg.sender].amountStaked++ */\n      tag_143\n      dup4\n      tag_75\n      jump\t// in\n    tag_143:\n      swap1\n      swap2\n      sstore\n      pop\n      pop\n      pop\n        /* \"NftStaking.sol\":2642:2665  stakerAddress[_tokenId] */\n      0x00\n      dup2\n      dup2\n      mstore\n        /* \"NftStaking.sol\":2642:2655  stakerAddress */\n      0x03\n        /* \"NftStaking.sol\":2642:2665  stakerAddress[_tokenId] */\n      0x20\n      swap1\n      dup2\n      mstore\n      0x40\n      dup1\n      dup4\n      keccak256\n        /* \"NftStaking.sol\":2642:2678  stakerAddress[_tokenId] = msg.sender */\n      dup1\n      sload\n      not(sub(shl(0xa0, 0x01), 0x01))\n      and\n        /* \"NftStaking.sol\":2668:2678  msg.sender */\n      caller\n        /* \"NftStaking.sol\":2642:2678  stakerAddress[_tokenId] = msg.sender */\n      swap1\n      dup2\n      or\n      swap1\n      swap2\n      sstore\n        /* \"NftStaking.sol\":2753:2772  stakers[msg.sender] */\n      dup4\n      mstore\n        /* \"NftStaking.sol\":2753:2760  stakers */\n      0x02\n        /* \"NftStaking.sol\":2753:2772  stakers[msg.sender] */\n      swap2\n      dup3\n      swap1\n      mstore\n      swap1\n      swap2\n      keccak256\n        /* \"NftStaking.sol\":2792:2807  block.timestamp */\n      timestamp\n        /* \"NftStaking.sol\":2753:2789  stakers[msg.sender].timeOfLastUpdate */\n      swap2\n      add\n        /* \"NftStaking.sol\":2753:2807  stakers[msg.sender].timeOfLastUpdate = block.timestamp */\n      sstore\n        /* \"@openzeppelin/contracts/security/ReentrancyGuard.sol\":2303:2323   */\n      tag_86\n        /* \"@openzeppelin/contracts/security/ReentrancyGuard.sol\":1716:1717   */\n      0x01\n        /* \"@openzeppelin/contracts/security/ReentrancyGuard.sol\":2809:2816   */\n      0x00\n        /* \"@openzeppelin/contracts/security/ReentrancyGuard.sol\":2809:2831   */\n      sstore\n        /* \"@openzeppelin/contracts/security/ReentrancyGuard.sol\":2629:2838   */\n      jump\n        /* \"NftStaking.sol\":5099:5295  function availableRewards(address _staker) public view returns (uint256) {... */\n    tag_49:\n      sub(shl(0xa0, 0x01), 0x01)\n        /* \"NftStaking.sol\":5229:5245  stakers[_staker] */\n      dup2\n      and\n        /* \"NftStaking.sol\":5163:5170  uint256 */\n      0x00\n        /* \"NftStaking.sol\":5229:5245  stakers[_staker] */\n      swap1\n      dup2\n      mstore\n        /* \"NftStaking.sol\":5229:5236  stakers */\n      0x02\n        /* \"NftStaking.sol\":5229:5245  stakers[_staker] */\n      0x20\n      mstore\n      0x40\n      dup2\n      keccak256\n        /* \"NftStaking.sol\":5229:5262  stakers[_staker].unclaimedRewards */\n      0x03\n      add\n      sload\n        /* \"NftStaking.sol\":5163:5170  uint256 */\n      dup2\n      swap1\n        /* \"NftStaking.sol\":5201:5226  calculateRewards(_staker) */\n      tag_146\n        /* \"NftStaking.sol\":5237:5244  _staker */\n      dup5\n        /* \"NftStaking.sol\":5201:5217  calculateRewards */\n      tag_63\n        /* \"NftStaking.sol\":5201:5226  calculateRewards(_staker) */\n      jump\t// in\n    tag_146:\n        /* \"NftStaking.sol\":5201:5262  calculateRewards(_staker) + stakers[_staker].unclaimedRewards */\n      tag_147\n      swap2\n      swap1\n      tag_65\n      jump\t// in\n    tag_147:\n        /* \"NftStaking.sol\":5183:5262  uint256 rewards = calculateRewards(_staker) + stakers[_staker].unclaimedRewards */\n      swap4\n        /* \"NftStaking.sol\":5099:5295  function availableRewards(address _staker) public view returns (uint256) {... */\n      swap3\n      pop\n      pop\n      pop\n      jump\t// out\n        /* \"@openzeppelin/contracts/security/ReentrancyGuard.sol\":2336:2623   */\n    tag_54:\n        /* \"@openzeppelin/contracts/security/ReentrancyGuard.sol\":1759:1760   */\n      0x02\n        /* \"@openzeppelin/contracts/security/ReentrancyGuard.sol\":2468:2475   */\n      sload(0x00)\n        /* \"@openzeppelin/contracts/security/ReentrancyGuard.sol\":2468:2487   */\n      sub\n        /* \"@openzeppelin/contracts/security/ReentrancyGuard.sol\":2460:2523   */\n      tag_149\n      jumpi\n      mload(0x40)\n      shl(0xe5, 0x461bcd)\n      dup2\n      mstore\n        /* \"#utility.yul\":5466:5468   */\n      0x20\n        /* \"@openzeppelin/contracts/security/ReentrancyGuard.sol\":2460:2523   */\n      0x04\n      dup3\n      add\n        /* \"#utility.yul\":5448:5469   */\n      mstore\n        /* \"#utility.yul\":5505:5507   */\n      0x1f\n        /* \"#utility.yul\":5485:5503   */\n      0x24\n      dup3\n      add\n        /* \"#utility.yul\":5478:5508   */\n      mstore\n        /* \"#utility.yul\":5544:5577   */\n      0x5265656e7472616e637947756172643a207265656e7472616e742063616c6c00\n        /* \"#utility.yul\":5524:5542   */\n      0x44\n      dup3\n      add\n        /* \"#utility.yul\":5517:5578   */\n      mstore\n        /* \"#utility.yul\":5595:5613   */\n      0x64\n      add\n        /* \"@openzeppelin/contracts/security/ReentrancyGuard.sol\":2460:2523   */\n      tag_57\n        /* \"#utility.yul\":5264:5619   */\n      jump\n        /* \"@openzeppelin/contracts/security/ReentrancyGuard.sol\":2460:2523   */\n    tag_149:\n        /* \"@openzeppelin/contracts/security/ReentrancyGuard.sol\":1759:1760   */\n      0x02\n        /* \"@openzeppelin/contracts/security/ReentrancyGuard.sol\":2598:2605   */\n      0x00\n        /* \"@openzeppelin/contracts/security/ReentrancyGuard.sol\":2598:2616   */\n      sstore\n        /* \"@openzeppelin/contracts/security/ReentrancyGuard.sol\":2336:2623   */\n      jump\t// out\n        /* \"NftStaking.sol\":4852:5091  function calculateRewards(address _staker) internal view returns (uint256 _rewards) {... */\n    tag_63:\n        /* \"NftStaking.sol\":5061:5075  rewardsPerHour */\n      sload(0x01)\n      sub(shl(0xa0, 0x01), 0x01)\n        /* \"NftStaking.sol\":5027:5043  stakers[_staker] */\n      dup3\n      and\n        /* \"NftStaking.sol\":4918:4934  uint256 _rewards */\n      0x00\n        /* \"NftStaking.sol\":5027:5043  stakers[_staker] */\n      swap1\n      dup2\n      mstore\n        /* \"NftStaking.sol\":5027:5034  stakers */\n      0x02\n        /* \"NftStaking.sol\":5027:5043  stakers[_staker] */\n      0x20\n      dup2\n      swap1\n      mstore\n      0x40\n      dup3\n      keccak256\n        /* \"NftStaking.sol\":5027:5056  stakers[_staker].amountStaked */\n      dup1\n      sload\n        /* \"NftStaking.sol\":4990:5023  stakers[_staker].timeOfLastUpdate */\n      swap2\n      add\n      sload\n        /* \"NftStaking.sol\":4918:4934  uint256 _rewards */\n      swap2\n      swap3\n        /* \"NftStaking.sol\":5078:5082  3600 */\n      0x0e10\n      swap3\n        /* \"NftStaking.sol\":5061:5075  rewardsPerHour */\n      swap1\n      swap2\n        /* \"NftStaking.sol\":5027:5056  stakers[_staker].amountStaked */\n      swap1\n        /* \"NftStaking.sol\":4972:5023  block.timestamp - stakers[_staker].timeOfLastUpdate */\n      tag_153\n      swap1\n        /* \"NftStaking.sol\":4972:4987  block.timestamp */\n      timestamp\n        /* \"NftStaking.sol\":4972:5023  block.timestamp - stakers[_staker].timeOfLastUpdate */\n      tag_154\n      jump\t// in\n    tag_153:\n        /* \"NftStaking.sol\":4971:5056  (block.timestamp - stakers[_staker].timeOfLastUpdate) * stakers[_staker].amountStaked */\n      tag_155\n      swap2\n      swap1\n      tag_156\n      jump\t// in\n    tag_155:\n        /* \"NftStaking.sol\":4969:5075  (((block.timestamp - stakers[_staker].timeOfLastUpdate) * stakers[_staker].amountStaked)) * rewardsPerHour */\n      tag_157\n      swap2\n      swap1\n      tag_156\n      jump\t// in\n    tag_157:\n        /* \"NftStaking.sol\":4968:5082  ((((block.timestamp - stakers[_staker].timeOfLastUpdate) * stakers[_staker].amountStaked)) * rewardsPerHour)/ 3600 */\n      tag_158\n      swap2\n      swap1\n      tag_159\n      jump\t// in\n    tag_158:\n        /* \"NftStaking.sol\":4947:5083  return(... */\n      swap3\n        /* \"NftStaking.sol\":4852:5091  function calculateRewards(address _staker) internal view returns (uint256 _rewards) {... */\n      swap2\n      pop\n      pop\n      jump\t// out\n        /* \"@openzeppelin/contracts/security/ReentrancyGuard.sol\":2629:2838   */\n    tag_87:\n        /* \"@openzeppelin/contracts/security/ReentrancyGuard.sol\":1716:1717   */\n      0x01\n        /* \"@openzeppelin/contracts/security/ReentrancyGuard.sol\":2809:2816   */\n      0x00\n        /* \"@openzeppelin/contracts/security/ReentrancyGuard.sol\":2809:2831   */\n      sstore\n        /* \"@openzeppelin/contracts/security/ReentrancyGuard.sol\":2629:2838   */\n      jump\t// out\n        /* \"@openzeppelin/contracts/token/ERC20/utils/SafeERC20.sol\":763:968   */\n    tag_95:\n        /* \"@openzeppelin/contracts/token/ERC20/utils/SafeERC20.sol\":902:960   */\n      0x40\n      dup1\n      mload\n      sub(shl(0xa0, 0x01), 0x01)\n        /* \"#utility.yul\":6344:6399   */\n      dup5\n      and\n        /* \"@openzeppelin/contracts/token/ERC20/utils/SafeERC20.sol\":902:960   */\n      0x24\n      dup3\n      add\n        /* \"#utility.yul\":6326:6400   */\n      mstore\n        /* \"#utility.yul\":6416:6434   */\n      0x44\n      dup1\n      dup3\n      add\n        /* \"#utility.yul\":6409:6443   */\n      dup5\n      swap1\n      mstore\n        /* \"@openzeppelin/contracts/token/ERC20/utils/SafeERC20.sol\":902:960   */\n      dup3\n      mload\n      dup1\n      dup4\n      sub\n      swap1\n      swap2\n      add\n      dup2\n      mstore\n        /* \"#utility.yul\":6299:6317   */\n      0x64\n      swap1\n      swap2\n      add\n        /* \"@openzeppelin/contracts/token/ERC20/utils/SafeERC20.sol\":902:960   */\n      swap1\n      swap2\n      mstore\n      0x20\n      dup2\n      add\n      dup1\n      mload\n      0xffffffffffffffffffffffffffffffffffffffffffffffffffffffff\n      and\n      shl(0xe0, 0xa9059cbb)\n      or\n      swap1\n      mstore\n        /* \"@openzeppelin/contracts/token/ERC20/utils/SafeERC20.sol\":875:961   */\n      tag_162\n      swap1\n        /* \"@openzeppelin/contracts/token/ERC20/utils/SafeERC20.sol\":895:900   */\n      dup5\n      swap1\n        /* \"@openzeppelin/contracts/token/ERC20/utils/SafeERC20.sol\":875:894   */\n      tag_165\n        /* \"@openzeppelin/contracts/token/ERC20/utils/SafeERC20.sol\":875:961   */\n      jump\t// in\n    tag_162:\n        /* \"@openzeppelin/contracts/token/ERC20/utils/SafeERC20.sol\":763:968   */\n      pop\n      pop\n      pop\n      jump\t// out\n        /* \"@openzeppelin/contracts/token/ERC20/utils/SafeERC20.sol\":3747:4453   */\n    tag_165:\n        /* \"@openzeppelin/contracts/token/ERC20/utils/SafeERC20.sol\":4166:4189   */\n      0x00\n        /* \"@openzeppelin/contracts/token/ERC20/utils/SafeERC20.sol\":4192:4261   */\n      tag_167\n        /* \"@openzeppelin/contracts/token/ERC20/utils/SafeERC20.sol\":4220:4224   */\n      dup3\n        /* \"@openzeppelin/contracts/token/ERC20/utils/SafeERC20.sol\":4192:4261   */\n      mload(0x40)\n      dup1\n      0x40\n      add\n      0x40\n      mstore\n      dup1\n      0x20\n      dup2\n      mstore\n      0x20\n      add\n      0x5361666545524332303a206c6f772d6c6576656c2063616c6c206661696c6564\n      dup2\n      mstore\n      pop\n        /* \"@openzeppelin/contracts/token/ERC20/utils/SafeERC20.sol\":4200:4205   */\n      dup6\n      sub(shl(0xa0, 0x01), 0x01)\n        /* \"@openzeppelin/contracts/token/ERC20/utils/SafeERC20.sol\":4192:4219   */\n      and\n      tag_168\n      swap1\n        /* \"@openzeppelin/contracts/token/ERC20/utils/SafeERC20.sol\":4192:4261   */\n      swap3\n      swap2\n      swap1\n      0xffffffff\n      and\n      jump\t// in\n    tag_167:\n        /* \"@openzeppelin/contracts/token/ERC20/utils/SafeERC20.sol\":4275:4292   */\n      dup1\n      mload\n        /* \"@openzeppelin/contracts/token/ERC20/utils/SafeERC20.sol\":4166:4261   */\n      swap1\n      swap2\n      pop\n        /* \"@openzeppelin/contracts/token/ERC20/utils/SafeERC20.sol\":4275:4296   */\n      iszero\n        /* \"@openzeppelin/contracts/token/ERC20/utils/SafeERC20.sol\":4271:4447   */\n      tag_162\n      jumpi\n        /* \"@openzeppelin/contracts/token/ERC20/utils/SafeERC20.sol\":4370:4380   */\n      dup1\n        /* \"@openzeppelin/contracts/token/ERC20/utils/SafeERC20.sol\":4359:4389   */\n      dup1\n      0x20\n      add\n      swap1\n      mload\n      dup2\n      add\n      swap1\n      tag_170\n      swap2\n      swap1\n      tag_171\n      jump\t// in\n    tag_170:\n        /* \"@openzeppelin/contracts/token/ERC20/utils/SafeERC20.sol\":4351:4436   */\n      tag_162\n      jumpi\n      mload(0x40)\n      shl(0xe5, 0x461bcd)\n      dup2\n      mstore\n        /* \"#utility.yul\":6938:6940   */\n      0x20\n        /* \"@openzeppelin/contracts/token/ERC20/utils/SafeERC20.sol\":4351:4436   */\n      0x04\n      dup3\n      add\n        /* \"#utility.yul\":6920:6941   */\n      mstore\n        /* \"#utility.yul\":6977:6979   */\n      0x2a\n        /* \"#utility.yul\":6957:6975   */\n      0x24\n      dup3\n      add\n        /* \"#utility.yul\":6950:6980   */\n      mstore\n        /* \"#utility.yul\":7016:7050   */\n      0x5361666545524332303a204552433230206f7065726174696f6e20646964206e\n        /* \"#utility.yul\":6996:7014   */\n      0x44\n      dup3\n      add\n        /* \"#utility.yul\":6989:7051   */\n      mstore\n        /* \"#utility.yul\":7087:7099   */\n      0x6f74207375636365656400000000000000000000000000000000000000000000\n        /* \"#utility.yul\":7067:7085   */\n      0x64\n      dup3\n      add\n        /* \"#utility.yul\":7060:7100   */\n      mstore\n        /* \"#utility.yul\":7117:7136   */\n      0x84\n      add\n        /* \"@openzeppelin/contracts/token/ERC20/utils/SafeERC20.sol\":4351:4436   */\n      tag_57\n        /* \"#utility.yul\":6736:7142   */\n      jump\n        /* \"@openzeppelin/contracts/utils/Address.sol\":3873:4096   */\n    tag_168:\n        /* \"@openzeppelin/contracts/utils/Address.sol\":4006:4018   */\n      0x60\n        /* \"@openzeppelin/contracts/utils/Address.sol\":4037:4089   */\n      tag_176\n        /* \"@openzeppelin/contracts/utils/Address.sol\":4059:4065   */\n      dup5\n        /* \"@openzeppelin/contracts/utils/Address.sol\":4067:4071   */\n      dup5\n        /* \"@openzeppelin/contracts/utils/Address.sol\":4073:4074   */\n      0x00\n        /* \"@openzeppelin/contracts/utils/Address.sol\":4076:4088   */\n      dup6\n        /* \"@openzeppelin/contracts/utils/Address.sol\":4037:4058   */\n      tag_177\n        /* \"@openzeppelin/contracts/utils/Address.sol\":4037:4089   */\n      jump\t// in\n    tag_176:\n        /* \"@openzeppelin/contracts/utils/Address.sol\":4030:4089   */\n      swap5\n        /* \"@openzeppelin/contracts/utils/Address.sol\":3873:4096   */\n      swap4\n      pop\n      pop\n      pop\n      pop\n      jump\t// out\n        /* \"@openzeppelin/contracts/utils/Address.sol\":4960:5406   */\n    tag_177:\n        /* \"@openzeppelin/contracts/utils/Address.sol\":5125:5137   */\n      0x60\n        /* \"@openzeppelin/contracts/utils/Address.sol\":5182:5187   */\n      dup3\n        /* \"@openzeppelin/contracts/utils/Address.sol\":5157:5178   */\n      selfbalance\n        /* \"@openzeppelin/contracts/utils/Address.sol\":5157:5187   */\n      lt\n      iszero\n        /* \"@openzeppelin/contracts/utils/Address.sol\":5149:5230   */\n      tag_179\n      jumpi\n      mload(0x40)\n      shl(0xe5, 0x461bcd)\n      dup2\n      mstore\n        /* \"#utility.yul\":7349:7351   */\n      0x20\n        /* \"@openzeppelin/contracts/utils/Address.sol\":5149:5230   */\n      0x04\n      dup3\n      add\n        /* \"#utility.yul\":7331:7352   */\n      mstore\n        /* \"#utility.yul\":7388:7390   */\n      0x26\n        /* \"#utility.yul\":7368:7386   */\n      0x24\n      dup3\n      add\n        /* \"#utility.yul\":7361:7391   */\n      mstore\n        /* \"#utility.yul\":7427:7461   */\n      0x416464726573733a20696e73756666696369656e742062616c616e636520666f\n        /* \"#utility.yul\":7407:7425   */\n      0x44\n      dup3\n      add\n        /* \"#utility.yul\":7400:7462   */\n      mstore\n        /* \"#utility.yul\":7498:7506   */\n      0x722063616c6c0000000000000000000000000000000000000000000000000000\n        /* \"#utility.yul\":7478:7496   */\n      0x64\n      dup3\n      add\n        /* \"#utility.yul\":7471:7507   */\n      mstore\n        /* \"#utility.yul\":7524:7543   */\n      0x84\n      add\n        /* \"@openzeppelin/contracts/utils/Address.sol\":5149:5230   */\n      tag_57\n        /* \"#utility.yul\":7147:7549   */\n      jump\n        /* \"@openzeppelin/contracts/utils/Address.sol\":5149:5230   */\n    tag_179:\n        /* \"@openzeppelin/contracts/utils/Address.sol\":5241:5253   */\n      0x00\n        /* \"@openzeppelin/contracts/utils/Address.sol\":5255:5278   */\n      dup1\n        /* \"@openzeppelin/contracts/utils/Address.sol\":5282:5288   */\n      dup7\n      sub(shl(0xa0, 0x01), 0x01)\n        /* \"@openzeppelin/contracts/utils/Address.sol\":5282:5293   */\n      and\n        /* \"@openzeppelin/contracts/utils/Address.sol\":5301:5306   */\n      dup6\n        /* \"@openzeppelin/contracts/utils/Address.sol\":5308:5312   */\n      dup8\n        /* \"@openzeppelin/contracts/utils/Address.sol\":5282:5313   */\n      mload(0x40)\n      tag_182\n      swap2\n      swap1\n      tag_183\n      jump\t// in\n    tag_182:\n      0x00\n      mload(0x40)\n      dup1\n      dup4\n      sub\n      dup2\n      dup6\n      dup8\n      gas\n      call\n      swap3\n      pop\n      pop\n      pop\n      returndatasize\n      dup1\n      0x00\n      dup2\n      eq\n      tag_186\n      jumpi\n      mload(0x40)\n      swap2\n      pop\n      and(add(returndatasize, 0x3f), not(0x1f))\n      dup3\n      add\n      0x40\n      mstore\n      returndatasize\n      dup3\n      mstore\n      returndatasize\n      0x00\n      0x20\n      dup5\n      add\n      returndatacopy\n      jump(tag_185)\n    tag_186:\n      0x60\n      swap2\n      pop\n    tag_185:\n      pop\n        /* \"@openzeppelin/contracts/utils/Address.sol\":5240:5313   */\n      swap2\n      pop\n      swap2\n      pop\n        /* \"@openzeppelin/contracts/utils/Address.sol\":5330:5399   */\n      tag_187\n        /* \"@openzeppelin/contracts/utils/Address.sol\":5357:5363   */\n      dup8\n        /* \"@openzeppelin/contracts/utils/Address.sol\":5365:5372   */\n      dup4\n        /* \"@openzeppelin/contracts/utils/Address.sol\":5374:5384   */\n      dup4\n        /* \"@openzeppelin/contracts/utils/Address.sol\":5386:5398   */\n      dup8\n        /* \"@openzeppelin/contracts/utils/Address.sol\":5330:5356   */\n      tag_188\n        /* \"@openzeppelin/contracts/utils/Address.sol\":5330:5399   */\n      jump\t// in\n    tag_187:\n        /* \"@openzeppelin/contracts/utils/Address.sol\":5323:5399   */\n      swap8\n        /* \"@openzeppelin/contracts/utils/Address.sol\":4960:5406   */\n      swap7\n      pop\n      pop\n      pop\n      pop\n      pop\n      pop\n      pop\n      jump\t// out\n        /* \"@openzeppelin/contracts/utils/Address.sol\":7466:8094   */\n    tag_188:\n        /* \"@openzeppelin/contracts/utils/Address.sol\":7646:7658   */\n      0x60\n        /* \"@openzeppelin/contracts/utils/Address.sol\":7674:7681   */\n      dup4\n        /* \"@openzeppelin/contracts/utils/Address.sol\":7670:8088   */\n      iszero\n      tag_190\n      jumpi\n        /* \"@openzeppelin/contracts/utils/Address.sol\":7701:7711   */\n      dup3\n        /* \"@openzeppelin/contracts/utils/Address.sol\":7701:7718   */\n      mload\n        /* \"@openzeppelin/contracts/utils/Address.sol\":7722:7723   */\n      0x00\n        /* \"@openzeppelin/contracts/utils/Address.sol\":7701:7723   */\n      sub\n        /* \"@openzeppelin/contracts/utils/Address.sol\":7697:7983   */\n      tag_194\n      jumpi\n      sub(shl(0xa0, 0x01), 0x01)\n        /* \"@openzeppelin/contracts/utils/Address.sol\":1465:1484   */\n      dup6\n      and\n      extcodesize\n        /* \"@openzeppelin/contracts/utils/Address.sol\":7908:7968   */\n      tag_194\n      jumpi\n      mload(0x40)\n      shl(0xe5, 0x461bcd)\n      dup2\n      mstore\n        /* \"#utility.yul\":8303:8305   */\n      0x20\n        /* \"@openzeppelin/contracts/utils/Address.sol\":7908:7968   */\n      0x04\n      dup3\n      add\n        /* \"#utility.yul\":8285:8306   */\n      mstore\n        /* \"#utility.yul\":8342:8344   */\n      0x1d\n        /* \"#utility.yul\":8322:8340   */\n      0x24\n      dup3\n      add\n        /* \"#utility.yul\":8315:8345   */\n      mstore\n        /* \"#utility.yul\":8381:8412   */\n      0x416464726573733a2063616c6c20746f206e6f6e2d636f6e7472616374000000\n        /* \"#utility.yul\":8361:8379   */\n      0x44\n      dup3\n      add\n        /* \"#utility.yul\":8354:8413   */\n      mstore\n        /* \"#utility.yul\":8430:8448   */\n      0x64\n      add\n        /* \"@openzeppelin/contracts/utils/Address.sol\":7908:7968   */\n      tag_57\n        /* \"#utility.yul\":8101:8454   */\n      jump\n        /* \"@openzeppelin/contracts/utils/Address.sol\":7908:7968   */\n    tag_194:\n      pop\n        /* \"@openzeppelin/contracts/utils/Address.sol\":8003:8013   */\n      dup2\n        /* \"@openzeppelin/contracts/utils/Address.sol\":7996:8013   */\n      jump(tag_176)\n        /* \"@openzeppelin/contracts/utils/Address.sol\":7670:8088   */\n    tag_190:\n        /* \"@openzeppelin/contracts/utils/Address.sol\":8044:8077   */\n      tag_176\n        /* \"@openzeppelin/contracts/utils/Address.sol\":8052:8062   */\n      dup4\n        /* \"@openzeppelin/contracts/utils/Address.sol\":8064:8076   */\n      dup4\n        /* \"@openzeppelin/contracts/utils/Address.sol\":8775:8792   */\n      dup2\n      mload\n        /* \"@openzeppelin/contracts/utils/Address.sol\":8775:8796   */\n      iszero\n        /* \"@openzeppelin/contracts/utils/Address.sol\":8771:9150   */\n      tag_202\n      jumpi\n        /* \"@openzeppelin/contracts/utils/Address.sol\":9003:9013   */\n      dup2\n        /* \"@openzeppelin/contracts/utils/Address.sol\":8997:9014   */\n      mload\n        /* \"@openzeppelin/contracts/utils/Address.sol\":9059:9074   */\n      dup1\n        /* \"@openzeppelin/contracts/utils/Address.sol\":9046:9056   */\n      dup4\n        /* \"@openzeppelin/contracts/utils/Address.sol\":9042:9044   */\n      0x20\n        /* \"@openzeppelin/contracts/utils/Address.sol\":9038:9057   */\n      add\n        /* \"@openzeppelin/contracts/utils/Address.sol\":9031:9075   */\n      revert\n        /* \"@openzeppelin/contracts/utils/Address.sol\":8771:9150   */\n    tag_202:\n        /* \"@openzeppelin/contracts/utils/Address.sol\":9126:9138   */\n      dup1\n        /* \"@openzeppelin/contracts/utils/Address.sol\":9119:9139   */\n      mload(0x40)\n      shl(0xe5, 0x461bcd)\n      dup2\n      mstore\n      0x04\n      add\n      tag_57\n      swap2\n      swap1\n      tag_205\n      jump\t// in\n        /* \"#utility.yul\":14:194   */\n    tag_16:\n        /* \"#utility.yul\":73:79   */\n      0x00\n        /* \"#utility.yul\":126:128   */\n      0x20\n        /* \"#utility.yul\":114:123   */\n      dup3\n        /* \"#utility.yul\":105:112   */\n      dup5\n        /* \"#utility.yul\":101:124   */\n      sub\n        /* \"#utility.yul\":97:129   */\n      slt\n        /* \"#utility.yul\":94:146   */\n      iszero\n      tag_211\n      jumpi\n        /* \"#utility.yul\":142:143   */\n      0x00\n        /* \"#utility.yul\":139:140   */\n      dup1\n        /* \"#utility.yul\":132:144   */\n      revert\n        /* \"#utility.yul\":94:146   */\n    tag_211:\n      pop\n        /* \"#utility.yul\":165:188   */\n      calldataload\n      swap2\n        /* \"#utility.yul\":14:194   */\n      swap1\n      pop\n      jump\t// out\n        /* \"#utility.yul\":199:353   */\n    tag_206:\n      sub(shl(0xa0, 0x01), 0x01)\n        /* \"#utility.yul\":278:283   */\n      dup2\n        /* \"#utility.yul\":274:328   */\n      and\n        /* \"#utility.yul\":267:272   */\n      dup2\n        /* \"#utility.yul\":264:329   */\n      eq\n        /* \"#utility.yul\":254:347   */\n      tag_86\n      jumpi\n        /* \"#utility.yul\":343:344   */\n      0x00\n        /* \"#utility.yul\":340:341   */\n      dup1\n        /* \"#utility.yul\":333:345   */\n      revert\n        /* \"#utility.yul\":358:605   */\n    tag_22:\n        /* \"#utility.yul\":417:423   */\n      0x00\n        /* \"#utility.yul\":470:472   */\n      0x20\n        /* \"#utility.yul\":458:467   */\n      dup3\n        /* \"#utility.yul\":449:456   */\n      dup5\n        /* \"#utility.yul\":445:468   */\n      sub\n        /* \"#utility.yul\":441:473   */\n      slt\n        /* \"#utility.yul\":438:490   */\n      iszero\n      tag_215\n      jumpi\n        /* \"#utility.yul\":486:487   */\n      0x00\n        /* \"#utility.yul\":483:484   */\n      dup1\n        /* \"#utility.yul\":476:488   */\n      revert\n        /* \"#utility.yul\":438:490   */\n    tag_215:\n        /* \"#utility.yul\":525:534   */\n      dup2\n        /* \"#utility.yul\":512:535   */\n      calldataload\n        /* \"#utility.yul\":544:575   */\n      tag_147\n        /* \"#utility.yul\":569:574   */\n      dup2\n        /* \"#utility.yul\":544:575   */\n      tag_206\n      jump\t// in\n        /* \"#utility.yul\":610:1451   */\n    tag_25:\n        /* \"#utility.yul\":835:837   */\n      0x20\n        /* \"#utility.yul\":887:908   */\n      dup1\n      dup3\n      mstore\n        /* \"#utility.yul\":957:970   */\n      dup3\n      mload\n        /* \"#utility.yul\":860:878   */\n      dup3\n      dup3\n      add\n        /* \"#utility.yul\":979:1001   */\n      dup2\n      swap1\n      mstore\n        /* \"#utility.yul\":806:810   */\n      0x00\n      swap2\n        /* \"#utility.yul\":835:837   */\n      swap1\n        /* \"#utility.yul\":1020:1022   */\n      0x40\n      swap1\n        /* \"#utility.yul\":1038:1056   */\n      dup2\n      dup6\n      add\n      swap1\n        /* \"#utility.yul\":1079:1094   */\n      dup7\n      dup5\n      add\n        /* \"#utility.yul\":806:810   */\n      dup6\n        /* \"#utility.yul\":1122:1425   */\n    tag_218:\n        /* \"#utility.yul\":1136:1142   */\n      dup3\n        /* \"#utility.yul\":1133:1134   */\n      dup2\n        /* \"#utility.yul\":1130:1143   */\n      lt\n        /* \"#utility.yul\":1122:1425   */\n      iszero\n      tag_220\n      jumpi\n        /* \"#utility.yul\":1195:1208   */\n      dup2\n      mload\n        /* \"#utility.yul\":1237:1246   */\n      dup1\n      mload\n      sub(shl(0xa0, 0x01), 0x01)\n        /* \"#utility.yul\":1233:1291   */\n      and\n        /* \"#utility.yul\":1221:1292   */\n      dup6\n      mstore\n        /* \"#utility.yul\":1332:1343   */\n      dup7\n      add\n        /* \"#utility.yul\":1326:1344   */\n      mload\n        /* \"#utility.yul\":1312:1324   */\n      dup7\n      dup6\n      add\n        /* \"#utility.yul\":1305:1345   */\n      mstore\n        /* \"#utility.yul\":1365:1377   */\n      swap3\n      dup5\n      add\n      swap3\n        /* \"#utility.yul\":1400:1415   */\n      swap1\n      dup6\n      add\n      swap1\n        /* \"#utility.yul\":1158:1159   */\n      0x01\n        /* \"#utility.yul\":1151:1160   */\n      add\n        /* \"#utility.yul\":1122:1425   */\n      jump(tag_218)\n    tag_220:\n      pop\n        /* \"#utility.yul\":1442:1445   */\n      swap2\n      swap8\n        /* \"#utility.yul\":610:1451   */\n      swap7\n      pop\n      pop\n      pop\n      pop\n      pop\n      pop\n      pop\n      jump\t// out\n        /* \"#utility.yul\":3441:3568   */\n    tag_207:\n        /* \"#utility.yul\":3502:3512   */\n      0x4e487b71\n        /* \"#utility.yul\":3497:3500   */\n      0xe0\n        /* \"#utility.yul\":3493:3513   */\n      shl\n        /* \"#utility.yul\":3490:3491   */\n      0x00\n        /* \"#utility.yul\":3483:3514   */\n      mstore\n        /* \"#utility.yul\":3533:3537   */\n      0x11\n        /* \"#utility.yul\":3530:3531   */\n      0x04\n        /* \"#utility.yul\":3523:3538   */\n      mstore\n        /* \"#utility.yul\":3557:3561   */\n      0x24\n        /* \"#utility.yul\":3554:3555   */\n      0x00\n        /* \"#utility.yul\":3547:3562   */\n      revert\n        /* \"#utility.yul\":3573:3698   */\n    tag_65:\n        /* \"#utility.yul\":3638:3647   */\n      dup1\n      dup3\n      add\n        /* \"#utility.yul\":3659:3669   */\n      dup1\n      dup3\n      gt\n        /* \"#utility.yul\":3656:3692   */\n      iszero\n      tag_158\n      jumpi\n        /* \"#utility.yul\":3672:3690   */\n      tag_158\n      tag_207\n      jump\t// in\n        /* \"#utility.yul\":3703:3830   */\n    tag_71:\n        /* \"#utility.yul\":3764:3774   */\n      0x4e487b71\n        /* \"#utility.yul\":3759:3762   */\n      0xe0\n        /* \"#utility.yul\":3755:3775   */\n      shl\n        /* \"#utility.yul\":3752:3753   */\n      0x00\n        /* \"#utility.yul\":3745:3776   */\n      mstore\n        /* \"#utility.yul\":3795:3799   */\n      0x32\n        /* \"#utility.yul\":3792:3793   */\n      0x04\n        /* \"#utility.yul\":3785:3800   */\n      mstore\n        /* \"#utility.yul\":3819:3823   */\n      0x24\n        /* \"#utility.yul\":3816:3817   */\n      0x00\n        /* \"#utility.yul\":3809:3824   */\n      revert\n        /* \"#utility.yul\":3835:3970   */\n    tag_75:\n        /* \"#utility.yul\":3874:3877   */\n      0x00\n        /* \"#utility.yul\":3895:3912   */\n      0x01\n      dup3\n      add\n        /* \"#utility.yul\":3892:3935   */\n      tag_235\n      jumpi\n        /* \"#utility.yul\":3915:3933   */\n      tag_235\n      tag_207\n      jump\t// in\n    tag_235:\n      pop\n        /* \"#utility.yul\":3962:3963   */\n      0x01\n        /* \"#utility.yul\":3951:3964   */\n      add\n      swap1\n        /* \"#utility.yul\":3835:3970   */\n      jump\t// out\n        /* \"#utility.yul\":3975:4111   */\n    tag_80:\n        /* \"#utility.yul\":4014:4017   */\n      0x00\n        /* \"#utility.yul\":4042:4047   */\n      dup2\n        /* \"#utility.yul\":4032:4071   */\n      tag_238\n      jumpi\n        /* \"#utility.yul\":4051:4069   */\n      tag_238\n      tag_207\n      jump\t// in\n    tag_238:\n      pop\n      not(0x00)\n        /* \"#utility.yul\":4087:4105   */\n      add\n      swap1\n        /* \"#utility.yul\":3975:4111   */\n      jump\t// out\n        /* \"#utility.yul\":4876:5003   */\n    tag_100:\n        /* \"#utility.yul\":4937:4947   */\n      0x4e487b71\n        /* \"#utility.yul\":4932:4935   */\n      0xe0\n        /* \"#utility.yul\":4928:4948   */\n      shl\n        /* \"#utility.yul\":4925:4926   */\n      0x00\n        /* \"#utility.yul\":4918:4949   */\n      mstore\n        /* \"#utility.yul\":4968:4972   */\n      0x41\n        /* \"#utility.yul\":4965:4966   */\n      0x04\n        /* \"#utility.yul\":4958:4973   */\n      mstore\n        /* \"#utility.yul\":4992:4996   */\n      0x24\n        /* \"#utility.yul\":4989:4990   */\n      0x00\n        /* \"#utility.yul\":4982:4997   */\n      revert\n        /* \"#utility.yul\":5008:5259   */\n    tag_135:\n        /* \"#utility.yul\":5078:5084   */\n      0x00\n        /* \"#utility.yul\":5131:5133   */\n      0x20\n        /* \"#utility.yul\":5119:5128   */\n      dup3\n        /* \"#utility.yul\":5110:5117   */\n      dup5\n        /* \"#utility.yul\":5106:5129   */\n      sub\n        /* \"#utility.yul\":5102:5134   */\n      slt\n        /* \"#utility.yul\":5099:5151   */\n      iszero\n      tag_243\n      jumpi\n        /* \"#utility.yul\":5147:5148   */\n      0x00\n        /* \"#utility.yul\":5144:5145   */\n      dup1\n        /* \"#utility.yul\":5137:5149   */\n      revert\n        /* \"#utility.yul\":5099:5151   */\n    tag_243:\n        /* \"#utility.yul\":5179:5188   */\n      dup2\n        /* \"#utility.yul\":5173:5189   */\n      mload\n        /* \"#utility.yul\":5198:5229   */\n      tag_147\n        /* \"#utility.yul\":5223:5228   */\n      dup2\n        /* \"#utility.yul\":5198:5229   */\n      tag_206\n      jump\t// in\n        /* \"#utility.yul\":5624:5752   */\n    tag_154:\n        /* \"#utility.yul\":5691:5700   */\n      dup2\n      dup2\n      sub\n        /* \"#utility.yul\":5712:5723   */\n      dup2\n      dup2\n      gt\n        /* \"#utility.yul\":5709:5746   */\n      iszero\n      tag_158\n      jumpi\n        /* \"#utility.yul\":5726:5744   */\n      tag_158\n      tag_207\n      jump\t// in\n        /* \"#utility.yul\":5757:5925   */\n    tag_156:\n        /* \"#utility.yul\":5830:5839   */\n      dup1\n      dup3\n      mul\n        /* \"#utility.yul\":5861:5870   */\n      dup2\n      iszero\n        /* \"#utility.yul\":5878:5893   */\n      dup3\n      dup3\n      div\n        /* \"#utility.yul\":5872:5894   */\n      dup5\n      eq\n        /* \"#utility.yul\":5858:5895   */\n      or\n        /* \"#utility.yul\":5848:5919   */\n      tag_158\n      jumpi\n        /* \"#utility.yul\":5899:5917   */\n      tag_158\n      tag_207\n      jump\t// in\n        /* \"#utility.yul\":5930:6147   */\n    tag_159:\n        /* \"#utility.yul\":5970:5971   */\n      0x00\n        /* \"#utility.yul\":5996:5997   */\n      dup3\n        /* \"#utility.yul\":5986:6118   */\n      tag_253\n      jumpi\n        /* \"#utility.yul\":6040:6050   */\n      0x4e487b71\n        /* \"#utility.yul\":6035:6038   */\n      0xe0\n        /* \"#utility.yul\":6031:6051   */\n      shl\n        /* \"#utility.yul\":6028:6029   */\n      0x00\n        /* \"#utility.yul\":6021:6052   */\n      mstore\n        /* \"#utility.yul\":6075:6079   */\n      0x12\n        /* \"#utility.yul\":6072:6073   */\n      0x04\n        /* \"#utility.yul\":6065:6080   */\n      mstore\n        /* \"#utility.yul\":6103:6107   */\n      0x24\n        /* \"#utility.yul\":6100:6101   */\n      0x00\n        /* \"#utility.yul\":6093:6108   */\n      revert\n        /* \"#utility.yul\":5986:6118   */\n    tag_253:\n      pop\n        /* \"#utility.yul\":6132:6141   */\n      div\n      swap1\n        /* \"#utility.yul\":5930:6147   */\n      jump\t// out\n        /* \"#utility.yul\":6454:6731   */\n    tag_171:\n        /* \"#utility.yul\":6521:6527   */\n      0x00\n        /* \"#utility.yul\":6574:6576   */\n      0x20\n        /* \"#utility.yul\":6562:6571   */\n      dup3\n        /* \"#utility.yul\":6553:6560   */\n      dup5\n        /* \"#utility.yul\":6549:6572   */\n      sub\n        /* \"#utility.yul\":6545:6577   */\n      slt\n        /* \"#utility.yul\":6542:6594   */\n      iszero\n      tag_256\n      jumpi\n        /* \"#utility.yul\":6590:6591   */\n      0x00\n        /* \"#utility.yul\":6587:6588   */\n      dup1\n        /* \"#utility.yul\":6580:6592   */\n      revert\n        /* \"#utility.yul\":6542:6594   */\n    tag_256:\n        /* \"#utility.yul\":6622:6631   */\n      dup2\n        /* \"#utility.yul\":6616:6632   */\n      mload\n        /* \"#utility.yul\":6675:6680   */\n      dup1\n        /* \"#utility.yul\":6668:6681   */\n      iszero\n        /* \"#utility.yul\":6661:6682   */\n      iszero\n        /* \"#utility.yul\":6654:6659   */\n      dup2\n        /* \"#utility.yul\":6651:6683   */\n      eq\n        /* \"#utility.yul\":6641:6701   */\n      tag_147\n      jumpi\n        /* \"#utility.yul\":6697:6698   */\n      0x00\n        /* \"#utility.yul\":6694:6695   */\n      dup1\n        /* \"#utility.yul\":6687:6699   */\n      revert\n        /* \"#utility.yul\":7554:7804   */\n    tag_208:\n        /* \"#utility.yul\":7639:7640   */\n      0x00\n        /* \"#utility.yul\":7649:7762   */\n    tag_261:\n        /* \"#utility.yul\":7663:7669   */\n      dup4\n        /* \"#utility.yul\":7660:7661   */\n      dup2\n        /* \"#utility.yul\":7657:7670   */\n      lt\n        /* \"#utility.yul\":7649:7762   */\n      iszero\n      tag_263\n      jumpi\n        /* \"#utility.yul\":7739:7750   */\n      dup2\n      dup2\n      add\n        /* \"#utility.yul\":7733:7751   */\n      mload\n        /* \"#utility.yul\":7720:7731   */\n      dup4\n      dup3\n      add\n        /* \"#utility.yul\":7713:7752   */\n      mstore\n        /* \"#utility.yul\":7685:7687   */\n      0x20\n        /* \"#utility.yul\":7678:7688   */\n      add\n        /* \"#utility.yul\":7649:7762   */\n      jump(tag_261)\n    tag_263:\n      pop\n      pop\n        /* \"#utility.yul\":7796:7797   */\n      0x00\n        /* \"#utility.yul\":7778:7794   */\n      swap2\n      add\n        /* \"#utility.yul\":7771:7798   */\n      mstore\n        /* \"#utility.yul\":7554:7804   */\n      jump\t// out\n        /* \"#utility.yul\":7809:8096   */\n    tag_183:\n        /* \"#utility.yul\":7938:7941   */\n      0x00\n        /* \"#utility.yul\":7976:7982   */\n      dup3\n        /* \"#utility.yul\":7970:7983   */\n      mload\n        /* \"#utility.yul\":7992:8058   */\n      tag_265\n        /* \"#utility.yul\":8051:8057   */\n      dup2\n        /* \"#utility.yul\":8046:8049   */\n      dup5\n        /* \"#utility.yul\":8039:8043   */\n      0x20\n        /* \"#utility.yul\":8031:8037   */\n      dup8\n        /* \"#utility.yul\":8027:8044   */\n      add\n        /* \"#utility.yul\":7992:8058   */\n      tag_208\n      jump\t// in\n    tag_265:\n        /* \"#utility.yul\":8074:8090   */\n      swap2\n      swap1\n      swap2\n      add\n      swap3\n        /* \"#utility.yul\":7809:8096   */\n      swap2\n      pop\n      pop\n      jump\t// out\n        /* \"#utility.yul\":8459:8855   */\n    tag_205:\n        /* \"#utility.yul\":8608:8610   */\n      0x20\n        /* \"#utility.yul\":8597:8606   */\n      dup2\n        /* \"#utility.yul\":8590:8611   */\n      mstore\n        /* \"#utility.yul\":8571:8575   */\n      0x00\n        /* \"#utility.yul\":8640:8646   */\n      dup3\n        /* \"#utility.yul\":8634:8647   */\n      mload\n        /* \"#utility.yul\":8683:8689   */\n      dup1\n        /* \"#utility.yul\":8678:8680   */\n      0x20\n        /* \"#utility.yul\":8667:8676   */\n      dup5\n        /* \"#utility.yul\":8663:8681   */\n      add\n        /* \"#utility.yul\":8656:8690   */\n      mstore\n        /* \"#utility.yul\":8699:8778   */\n      tag_268\n        /* \"#utility.yul\":8771:8777   */\n      dup2\n        /* \"#utility.yul\":8766:8768   */\n      0x40\n        /* \"#utility.yul\":8755:8764   */\n      dup6\n        /* \"#utility.yul\":8751:8769   */\n      add\n        /* \"#utility.yul\":8746:8748   */\n      0x20\n        /* \"#utility.yul\":8738:8744   */\n      dup8\n        /* \"#utility.yul\":8734:8749   */\n      add\n        /* \"#utility.yul\":8699:8778   */\n      tag_208\n      jump\t// in\n    tag_268:\n        /* \"#utility.yul\":8839:8841   */\n      0x1f\n        /* \"#utility.yul\":8818:8833   */\n      add\n      not(0x1f)\n        /* \"#utility.yul\":8814:8843   */\n      and\n        /* \"#utility.yul\":8799:8844   */\n      swap2\n      swap1\n      swap2\n      add\n        /* \"#utility.yul\":8846:8848   */\n      0x40\n        /* \"#utility.yul\":8795:8849   */\n      add\n      swap3\n        /* \"#utility.yul\":8459:8855   */\n      swap2\n      pop\n      pop\n      jump\t// out\n\n    auxdata: 0xa2646970667358221220d5ec87dff773bb8a2251ff2f22bccd584be2f985743caa33749b8d8b82f72cd464736f6c63430008110033\n}\n",
    "bytecode": {
      "linkReferences": {},
      "object": "60c0604052620186a060015534801561001757600080fd5b5060405161111d38038061111d8339810160408190526100369161006a565b60016000556001600160a01b0391821660a052166080526100a4565b6001600160a01b038116811461006757600080fd5b50565b6000806040838503121561007d57600080fd5b825161008881610052565b602084015190925061009981610052565b809150509250929050565b60805160a0516110396100e46000396000818160f301528181610436015281816107f301526108d60152600081816101b7015261055401526110396000f3fe608060405234801561001057600080fd5b50600436106100a35760003560e01c80639168ae7211610076578063a694fc3a1161005b578063a694fc3a1461019f578063d1af0c7d146101b2578063f854a27f146101d957600080fd5b80639168ae721461012d578063940670451461017657600080fd5b80632e1a7d4d146100a8578063372500ab146100bd57806363c28db1146100c55780636588103b146100ee575b600080fd5b6100bb6100b6366004610ddd565b6101fa565b005b6100bb6104b7565b6100d86100d3366004610e0b565b610583565b6040516100e59190610e28565b60405180910390f35b6101157f000000000000000000000000000000000000000000000000000000000000000081565b6040516001600160a01b0390911681526020016100e5565b61015b61013b366004610e0b565b600260208190526000918252604090912080549181015460039091015483565b604080519384526020840192909252908201526060016100e5565b610115610184366004610ddd565b6003602052600090815260409020546001600160a01b031681565b6100bb6101ad366004610ddd565b61077d565b6101157f000000000000000000000000000000000000000000000000000000000000000081565b6101ec6101e7366004610e0b565b6109f4565b6040519081526020016100e5565b610202610a2c565b3360009081526002602052604090205461026d5760405162461bcd60e51b815260206004820152602160248201527f596f7520646f206e6f74206861766520616e7920746f6b656e73207374616b656044820152601960fa1b60648201526084015b60405180910390fd5b6000818152600360205260409020546001600160a01b031633146102d35760405162461bcd60e51b815260206004820152601960248201527f596f7520646f206e6f74206f776e207468697320746f6b656e000000000000006044820152606401610264565b60006102de33610a85565b33600090815260026020526040812060030180549293508392909190610305908490610e96565b9091555060009050805b336000908152600260205260409020600101548110156103815733600090815260026020526040902060010180548591908390811061035057610350610ea9565b9060005260206000209060020201600101540361036f57809150610381565b8061037981610ebf565b91505061030f565b503360009081526002602052604081206001018054839081106103a6576103a6610ea9565b6000918252602080832060029283020180546001600160a01b0319166001600160a01b039590951694909417909355338252909152604081208054916103eb83610ed8565b90915550506000838152600360205260409081902080546001600160a01b0319169055516323b872dd60e01b8152306004820152336024820152604481018490526001600160a01b037f000000000000000000000000000000000000000000000000000000000000000016906323b872dd90606401600060405180830381600087803b15801561047a57600080fd5b505af115801561048e573d6000803e3d6000fd5b505033600090815260026020819052604090912042910155506104b49250610ade915050565b50565b3360008181526002602052604081206003015490916104d590610a85565b6104df9190610e96565b9050600081116105315760405162461bcd60e51b815260206004820152601c60248201527f596f752068617665206e6f207265776172647320746f20636c61696d000000006044820152606401610264565b33600081815260026020819052604082204291810191909155600301556104b4907f00000000000000000000000000000000000000000000000000000000000000006001600160a01b03169083610ae5565b6001600160a01b03811660009081526002602052604090205460609015610739576001600160a01b03821660009081526002602052604081205467ffffffffffffffff8111156105d5576105d5610eef565b60405190808252806020026020018201604052801561061a57816020015b60408051808201909152600080825260208201528152602001906001900390816105f35790505b5090506000805b6001600160a01b038516600090815260026020526040902060010154811015610730576001600160a01b038516600090815260026020526040812060010180548390811061067157610671610ea9565b60009182526020909120600290910201546001600160a01b03161461071e576001600160a01b03851660009081526002602052604090206001018054829081106106bd576106bd610ea9565b60009182526020918290206040805180820190915260029092020180546001600160a01b031682526001015491810191909152835184908490811061070457610704610ea9565b6020026020010181905250818061071a90610ebf565b9250505b8061072881610ebf565b915050610621565b50909392505050565b6040805160008082526020820190925290610776565b604080518082019091526000808252602082015281526020019060019003908161074f5790505b5092915050565b610785610a2c565b33600090815260026020526040902054156107d35760006107a533610a85565b336000908152600260205260408120600301805492935083929091906107cc908490610e96565b9091555050505b6040516331a9108f60e11b81526004810182905233906001600160a01b037f00000000000000000000000000000000000000000000000000000000000000001690636352211e90602401602060405180830381865afa15801561083a573d6000803e3d6000fd5b505050506040513d601f19601f8201168201806040525081019061085e9190610f05565b6001600160a01b0316146108b45760405162461bcd60e51b815260206004820152601960248201527f596f7520646f206e6f74206f776e207468697320746f6b656e000000000000006044820152606401610264565b6040516323b872dd60e01b8152336004820152306024820152604481018290527f00000000000000000000000000000000000000000000000000000000000000006001600160a01b0316906323b872dd90606401600060405180830381600087803b15801561092257600080fd5b505af1158015610936573d6000803e3d6000fd5b50506040805180820182523380825260208083018781526000838152600280845295812060018082018054808301825590845294832087519590980290970180546001600160a01b0319166001600160a01b03909516949094178455915192909501919091559083528054919450909250906109b183610ebf565b909155505050600081815260036020908152604080832080546001600160a01b031916339081179091558352600291829052909120429101556104b46001600055565b6001600160a01b0381166000908152600260205260408120600301548190610a1b84610a85565b610a259190610e96565b9392505050565b600260005403610a7e5760405162461bcd60e51b815260206004820152601f60248201527f5265656e7472616e637947756172643a207265656e7472616e742063616c6c006044820152606401610264565b6002600055565b6001546001600160a01b0382166000908152600260208190526040822080549101549192610e1092909190610aba9042610f22565b610ac49190610f35565b610ace9190610f35565b610ad89190610f4c565b92915050565b6001600055565b604080516001600160a01b038416602482015260448082018490528251808303909101815260649091019091526020810180517bffffffffffffffffffffffffffffffffffffffffffffffffffffffff1663a9059cbb60e01b179052610b4c908490610b51565b505050565b6000610ba6826040518060400160405280602081526020017f5361666545524332303a206c6f772d6c6576656c2063616c6c206661696c6564815250856001600160a01b0316610c369092919063ffffffff16565b805190915015610b4c5780806020019051810190610bc49190610f6e565b610b4c5760405162461bcd60e51b815260206004820152602a60248201527f5361666545524332303a204552433230206f7065726174696f6e20646964206e60448201527f6f742073756363656564000000000000000000000000000000000000000000006064820152608401610264565b6060610c458484600085610c4d565b949350505050565b606082471015610cc55760405162461bcd60e51b815260206004820152602660248201527f416464726573733a20696e73756666696369656e742062616c616e636520666f60448201527f722063616c6c00000000000000000000000000000000000000000000000000006064820152608401610264565b600080866001600160a01b03168587604051610ce19190610fb4565b60006040518083038185875af1925050503d8060008114610d1e576040519150601f19603f3d011682016040523d82523d6000602084013e610d23565b606091505b5091509150610d3487838387610d3f565b979650505050505050565b60608315610dae578251600003610da7576001600160a01b0385163b610da75760405162461bcd60e51b815260206004820152601d60248201527f416464726573733a2063616c6c20746f206e6f6e2d636f6e74726163740000006044820152606401610264565b5081610c45565b610c458383815115610dc35781518083602001fd5b8060405162461bcd60e51b81526004016102649190610fd0565b600060208284031215610def57600080fd5b5035919050565b6001600160a01b03811681146104b457600080fd5b600060208284031215610e1d57600080fd5b8135610a2581610df6565b602080825282518282018190526000919060409081850190868401855b82811015610e7357815180516001600160a01b03168552860151868501529284019290850190600101610e45565b5091979650505050505050565b634e487b7160e01b600052601160045260246000fd5b80820180821115610ad857610ad8610e80565b634e487b7160e01b600052603260045260246000fd5b600060018201610ed157610ed1610e80565b5060010190565b600081610ee757610ee7610e80565b506000190190565b634e487b7160e01b600052604160045260246000fd5b600060208284031215610f1757600080fd5b8151610a2581610df6565b81810381811115610ad857610ad8610e80565b8082028115828204841417610ad857610ad8610e80565b600082610f6957634e487b7160e01b600052601260045260246000fd5b500490565b600060208284031215610f8057600080fd5b81518015158114610a2557600080fd5b60005b83811015610fab578181015183820152602001610f93565b50506000910152565b60008251610fc6818460208701610f90565b9190910192915050565b6020815260008251806020840152610fef816040850160208701610f90565b601f01601f1916919091016040019291505056fea2646970667358221220d5ec87dff773bb8a2251ff2f22bccd584be2f985743caa33749b8d8b82f72cd464736f6c63430008110033",
      "opcodes": "PUSH1 0xC0 PUSH1 0x40 MSTORE PUSH3 0x186A0 PUSH1 0x1 SSTORE CALLVALUE DUP1 ISZERO PUSH2 0x17 JUMPI PUSH1 0x0 DUP1 REVERT JUMPDEST POP PUSH1 0x40 MLOAD PUSH2 0x111D CODESIZE SUB DUP1 PUSH2 0x111D DUP4 CODECOPY DUP2 ADD PUSH1 0x40 DUP2 SWAP1 MSTORE PUSH2 0x36 SWAP2 PUSH2 0x6A JUMP JUMPDEST PUSH1 0x1 PUSH1 0x0 SSTORE PUSH1 0x1 PUSH1 0x1 PUSH1 0xA0 SHL SUB SWAP2 DUP3 AND PUSH1 0xA0 MSTORE AND PUSH1 0x80 MSTORE PUSH2 0xA4 JUMP JUMPDEST PUSH1 0x1 PUSH1 0x1 PUSH1 0xA0 SHL SUB DUP2 AND DUP2 EQ PUSH2 0x67 JUMPI PUSH1 0x0 DUP1 REVERT JUMPDEST POP JUMP JUMPDEST PUSH1 0x0 DUP1 PUSH1 0x40 DUP4 DUP6 SUB SLT ISZERO PUSH2 0x7D JUMPI PUSH1 0x0 DUP1 REVERT JUMPDEST DUP3 MLOAD PUSH2 0x88 DUP2 PUSH2 0x52 JUMP JUMPDEST PUSH1 0x20 DUP5 ADD MLOAD SWAP1 SWAP3 POP PUSH2 0x99 DUP2 PUSH2 0x52 JUMP JUMPDEST DUP1 SWAP2 POP POP SWAP3 POP SWAP3 SWAP1 POP JUMP JUMPDEST PUSH1 0x80 MLOAD PUSH1 0xA0 MLOAD PUSH2 0x1039 PUSH2 0xE4 PUSH1 0x0 CODECOPY PUSH1 0x0 DUP2 DUP2 PUSH1 0xF3 ADD MSTORE DUP2 DUP2 PUSH2 0x436 ADD MSTORE DUP2 DUP2 PUSH2 0x7F3 ADD MSTORE PUSH2 0x8D6 ADD MSTORE PUSH1 0x0 DUP2 DUP2 PUSH2 0x1B7 ADD MSTORE PUSH2 0x554 ADD MSTORE PUSH2 0x1039 PUSH1 0x0 RETURN INVALID PUSH1 0x80 PUSH1 0x40 MSTORE CALLVALUE DUP1 ISZERO PUSH2 0x10 JUMPI PUSH1 0x0 DUP1 REVERT JUMPDEST POP PUSH1 0x4 CALLDATASIZE LT PUSH2 0xA3 JUMPI PUSH1 0x0 CALLDATALOAD PUSH1 0xE0 SHR DUP1 PUSH4 0x9168AE72 GT PUSH2 0x76 JUMPI DUP1 PUSH4 0xA694FC3A GT PUSH2 0x5B JUMPI DUP1 PUSH4 0xA694FC3A EQ PUSH2 0x19F JUMPI DUP1 PUSH4 0xD1AF0C7D EQ PUSH2 0x1B2 JUMPI DUP1 PUSH4 0xF854A27F EQ PUSH2 0x1D9 JUMPI PUSH1 0x0 DUP1 REVERT JUMPDEST DUP1 PUSH4 0x9168AE72 EQ PUSH2 0x12D JUMPI DUP1 PUSH4 0x94067045 EQ PUSH2 0x176 JUMPI PUSH1 0x0 DUP1 REVERT JUMPDEST DUP1 PUSH4 0x2E1A7D4D EQ PUSH2 0xA8 JUMPI DUP1 PUSH4 0x372500AB EQ PUSH2 0xBD JUMPI DUP1 PUSH4 0x63C28DB1 EQ PUSH2 0xC5 JUMPI DUP1 PUSH4 0x6588103B EQ PUSH2 0xEE JUMPI JUMPDEST PUSH1 0x0 DUP1 REVERT JUMPDEST PUSH2 0xBB PUSH2 0xB6 CALLDATASIZE PUSH1 0x4 PUSH2 0xDDD JUMP JUMPDEST PUSH2 0x1FA JUMP JUMPDEST STOP JUMPDEST PUSH2 0xBB PUSH2 0x4B7 JUMP JUMPDEST PUSH2 0xD8 PUSH2 0xD3 CALLDATASIZE PUSH1 0x4 PUSH2 0xE0B JUMP JUMPDEST PUSH2 0x583 JUMP JUMPDEST PUSH1 0x40 MLOAD PUSH2 0xE5 SWAP2 SWAP1 PUSH2 0xE28 JUMP JUMPDEST PUSH1 0x40 MLOAD DUP1 SWAP2 SUB SWAP1 RETURN JUMPDEST PUSH2 0x115 PUSH32 0x0 DUP2 JUMP JUMPDEST PUSH1 0x40 MLOAD PUSH1 0x1 PUSH1 0x1 PUSH1 0xA0 SHL SUB SWAP1 SWAP2 AND DUP2 MSTORE PUSH1 0x20 ADD PUSH2 0xE5 JUMP JUMPDEST PUSH2 0x15B PUSH2 0x13B CALLDATASIZE PUSH1 0x4 PUSH2 0xE0B JUMP JUMPDEST PUSH1 0x2 PUSH1 0x20 DUP2 SWAP1 MSTORE PUSH1 0x0 SWAP2 DUP3 MSTORE PUSH1 0x40 SWAP1 SWAP2 KECCAK256 DUP1 SLOAD SWAP2 DUP2 ADD SLOAD PUSH1 0x3 SWAP1 SWAP2 ADD SLOAD DUP4 JUMP JUMPDEST PUSH1 0x40 DUP1 MLOAD SWAP4 DUP5 MSTORE PUSH1 0x20 DUP5 ADD SWAP3 SWAP1 SWAP3 MSTORE SWAP1 DUP3 ADD MSTORE PUSH1 0x60 ADD PUSH2 0xE5 JUMP JUMPDEST PUSH2 0x115 PUSH2 0x184 CALLDATASIZE PUSH1 0x4 PUSH2 0xDDD JUMP JUMPDEST PUSH1 0x3 PUSH1 0x20 MSTORE PUSH1 0x0 SWAP1 DUP2 MSTORE PUSH1 0x40 SWAP1 KECCAK256 SLOAD PUSH1 0x1 PUSH1 0x1 PUSH1 0xA0 SHL SUB AND DUP2 JUMP JUMPDEST PUSH2 0xBB PUSH2 0x1AD CALLDATASIZE PUSH1 0x4 PUSH2 0xDDD JUMP JUMPDEST PUSH2 0x77D JUMP JUMPDEST PUSH2 0x115 PUSH32 0x0 DUP2 JUMP JUMPDEST PUSH2 0x1EC PUSH2 0x1E7 CALLDATASIZE PUSH1 0x4 PUSH2 0xE0B JUMP JUMPDEST PUSH2 0x9F4 JUMP JUMPDEST PUSH1 0x40 MLOAD SWAP1 DUP2 MSTORE PUSH1 0x20 ADD PUSH2 0xE5 JUMP JUMPDEST PUSH2 0x202 PUSH2 0xA2C JUMP JUMPDEST CALLER PUSH1 0x0 SWAP1 DUP2 MSTORE PUSH1 0x2 PUSH1 0x20 MSTORE PUSH1 0x40 SWAP1 KECCAK256 SLOAD PUSH2 0x26D JUMPI PUSH1 0x40 MLOAD PUSH3 0x461BCD PUSH1 0xE5 SHL DUP2 MSTORE PUSH1 0x20 PUSH1 0x4 DUP3 ADD MSTORE PUSH1 0x21 PUSH1 0x24 DUP3 ADD MSTORE PUSH32 0x596F7520646F206E6F74206861766520616E7920746F6B656E73207374616B65 PUSH1 0x44 DUP3 ADD MSTORE PUSH1 0x19 PUSH1 0xFA SHL PUSH1 0x64 DUP3 ADD MSTORE PUSH1 0x84 ADD JUMPDEST PUSH1 0x40 MLOAD DUP1 SWAP2 SUB SWAP1 REVERT JUMPDEST PUSH1 0x0 DUP2 DUP2 MSTORE PUSH1 0x3 PUSH1 0x20 MSTORE PUSH1 0x40 SWAP1 KECCAK256 SLOAD PUSH1 0x1 PUSH1 0x1 PUSH1 0xA0 SHL SUB AND CALLER EQ PUSH2 0x2D3 JUMPI PUSH1 0x40 MLOAD PUSH3 0x461BCD PUSH1 0xE5 SHL DUP2 MSTORE PUSH1 0x20 PUSH1 0x4 DUP3 ADD MSTORE PUSH1 0x19 PUSH1 0x24 DUP3 ADD MSTORE PUSH32 0x596F7520646F206E6F74206F776E207468697320746F6B656E00000000000000 PUSH1 0x44 DUP3 ADD MSTORE PUSH1 0x64 ADD PUSH2 0x264 JUMP JUMPDEST PUSH1 0x0 PUSH2 0x2DE CALLER PUSH2 0xA85 JUMP JUMPDEST CALLER PUSH1 0x0 SWAP1 DUP2 MSTORE PUSH1 0x2 PUSH1 0x20 MSTORE PUSH1 0x40 DUP2 KECCAK256 PUSH1 0x3 ADD DUP1 SLOAD SWAP3 SWAP4 POP DUP4 SWAP3 SWAP1 SWAP2 SWAP1 PUSH2 0x305 SWAP1 DUP5 SWAP1 PUSH2 0xE96 JUMP JUMPDEST SWAP1 SWAP2 SSTORE POP PUSH1 0x0 SWAP1 POP DUP1 JUMPDEST CALLER PUSH1 0x0 SWAP1 DUP2 MSTORE PUSH1 0x2 PUSH1 0x20 MSTORE PUSH1 0x40 SWAP1 KECCAK256 PUSH1 0x1 ADD SLOAD DUP2 LT ISZERO PUSH2 0x381 JUMPI CALLER PUSH1 0x0 SWAP1 DUP2 MSTORE PUSH1 0x2 PUSH1 0x20 MSTORE PUSH1 0x40 SWAP1 KECCAK256 PUSH1 0x1 ADD DUP1 SLOAD DUP6 SWAP2 SWAP1 DUP4 SWAP1 DUP2 LT PUSH2 0x350 JUMPI PUSH2 0x350 PUSH2 0xEA9 JUMP JUMPDEST SWAP1 PUSH1 0x0 MSTORE PUSH1 0x20 PUSH1 0x0 KECCAK256 SWAP1 PUSH1 0x2 MUL ADD PUSH1 0x1 ADD SLOAD SUB PUSH2 0x36F JUMPI DUP1 SWAP2 POP PUSH2 0x381 JUMP JUMPDEST DUP1 PUSH2 0x379 DUP2 PUSH2 0xEBF JUMP JUMPDEST SWAP2 POP POP PUSH2 0x30F JUMP JUMPDEST POP CALLER PUSH1 0x0 SWAP1 DUP2 MSTORE PUSH1 0x2 PUSH1 0x20 MSTORE PUSH1 0x40 DUP2 KECCAK256 PUSH1 0x1 ADD DUP1 SLOAD DUP4 SWAP1 DUP2 LT PUSH2 0x3A6 JUMPI PUSH2 0x3A6 PUSH2 0xEA9 JUMP JUMPDEST PUSH1 0x0 SWAP2 DUP3 MSTORE PUSH1 0x20 DUP1 DUP4 KECCAK256 PUSH1 0x2 SWAP3 DUP4 MUL ADD DUP1 SLOAD PUSH1 0x1 PUSH1 0x1 PUSH1 0xA0 SHL SUB NOT AND PUSH1 0x1 PUSH1 0x1 PUSH1 0xA0 SHL SUB SWAP6 SWAP1 SWAP6 AND SWAP5 SWAP1 SWAP5 OR SWAP1 SWAP4 SSTORE CALLER DUP3 MSTORE SWAP1 SWAP2 MSTORE PUSH1 0x40 DUP2 KECCAK256 DUP1 SLOAD SWAP2 PUSH2 0x3EB DUP4 PUSH2 0xED8 JUMP JUMPDEST SWAP1 SWAP2 SSTORE POP POP PUSH1 0x0 DUP4 DUP2 MSTORE PUSH1 0x3 PUSH1 0x20 MSTORE PUSH1 0x40 SWAP1 DUP2 SWAP1 KECCAK256 DUP1 SLOAD PUSH1 0x1 PUSH1 0x1 PUSH1 0xA0 SHL SUB NOT AND SWAP1 SSTORE MLOAD PUSH4 0x23B872DD PUSH1 0xE0 SHL DUP2 MSTORE ADDRESS PUSH1 0x4 DUP3 ADD MSTORE CALLER PUSH1 0x24 DUP3 ADD MSTORE PUSH1 0x44 DUP2 ADD DUP5 SWAP1 MSTORE PUSH1 0x1 PUSH1 0x1 PUSH1 0xA0 SHL SUB PUSH32 0x0 AND SWAP1 PUSH4 0x23B872DD SWAP1 PUSH1 0x64 ADD PUSH1 0x0 PUSH1 0x40 MLOAD DUP1 DUP4 SUB DUP2 PUSH1 0x0 DUP8 DUP1 EXTCODESIZE ISZERO DUP1 ISZERO PUSH2 0x47A JUMPI PUSH1 0x0 DUP1 REVERT JUMPDEST POP GAS CALL ISZERO DUP1 ISZERO PUSH2 0x48E JUMPI RETURNDATASIZE PUSH1 0x0 DUP1 RETURNDATACOPY RETURNDATASIZE PUSH1 0x0 REVERT JUMPDEST POP POP CALLER PUSH1 0x0 SWAP1 DUP2 MSTORE PUSH1 0x2 PUSH1 0x20 DUP2 SWAP1 MSTORE PUSH1 0x40 SWAP1 SWAP2 KECCAK256 TIMESTAMP SWAP2 ADD SSTORE POP PUSH2 0x4B4 SWAP3 POP PUSH2 0xADE SWAP2 POP POP JUMP JUMPDEST POP JUMP JUMPDEST CALLER PUSH1 0x0 DUP2 DUP2 MSTORE PUSH1 0x2 PUSH1 0x20 MSTORE PUSH1 0x40 DUP2 KECCAK256 PUSH1 0x3 ADD SLOAD SWAP1 SWAP2 PUSH2 0x4D5 SWAP1 PUSH2 0xA85 JUMP JUMPDEST PUSH2 0x4DF SWAP2 SWAP1 PUSH2 0xE96 JUMP JUMPDEST SWAP1 POP PUSH1 0x0 DUP2 GT PUSH2 0x531 JUMPI PUSH1 0x40 MLOAD PUSH3 0x461BCD PUSH1 0xE5 SHL DUP2 MSTORE PUSH1 0x20 PUSH1 0x4 DUP3 ADD MSTORE PUSH1 0x1C PUSH1 0x24 DUP3 ADD MSTORE PUSH32 0x596F752068617665206E6F207265776172647320746F20636C61696D00000000 PUSH1 0x44 DUP3 ADD MSTORE PUSH1 0x64 ADD PUSH2 0x264 JUMP JUMPDEST CALLER PUSH1 0x0 DUP2 DUP2 MSTORE PUSH1 0x2 PUSH1 0x20 DUP2 SWAP1 MSTORE PUSH1 0x40 DUP3 KECCAK256 TIMESTAMP SWAP2 DUP2 ADD SWAP2 SWAP1 SWAP2 SSTORE PUSH1 0x3 ADD SSTORE PUSH2 0x4B4 SWAP1 PUSH32 0x0 PUSH1 0x1 PUSH1 0x1 PUSH1 0xA0 SHL SUB AND SWAP1 DUP4 PUSH2 0xAE5 JUMP JUMPDEST PUSH1 0x1 PUSH1 0x1 PUSH1 0xA0 SHL SUB DUP2 AND PUSH1 0x0 SWAP1 DUP2 MSTORE PUSH1 0x2 PUSH1 0x20 MSTORE PUSH1 0x40 SWAP1 KECCAK256 SLOAD PUSH1 0x60 SWAP1 ISZERO PUSH2 0x739 JUMPI PUSH1 0x1 PUSH1 0x1 PUSH1 0xA0 SHL SUB DUP3 AND PUSH1 0x0 SWAP1 DUP2 MSTORE PUSH1 0x2 PUSH1 0x20 MSTORE PUSH1 0x40 DUP2 KECCAK256 SLOAD PUSH8 0xFFFFFFFFFFFFFFFF DUP2 GT ISZERO PUSH2 0x5D5 JUMPI PUSH2 0x5D5 PUSH2 0xEEF JUMP JUMPDEST PUSH1 0x40 MLOAD SWAP1 DUP1 DUP3 MSTORE DUP1 PUSH1 0x20 MUL PUSH1 0x20 ADD DUP3 ADD PUSH1 0x40 MSTORE DUP1 ISZERO PUSH2 0x61A JUMPI DUP2 PUSH1 0x20 ADD JUMPDEST PUSH1 0x40 DUP1 MLOAD DUP1 DUP3 ADD SWAP1 SWAP2 MSTORE PUSH1 0x0 DUP1 DUP3 MSTORE PUSH1 0x20 DUP3 ADD MSTORE DUP2 MSTORE PUSH1 0x20 ADD SWAP1 PUSH1 0x1 SWAP1 SUB SWAP1 DUP2 PUSH2 0x5F3 JUMPI SWAP1 POP JUMPDEST POP SWAP1 POP PUSH1 0x0 DUP1 JUMPDEST PUSH1 0x1 PUSH1 0x1 PUSH1 0xA0 SHL SUB DUP6 AND PUSH1 0x0 SWAP1 DUP2 MSTORE PUSH1 0x2 PUSH1 0x20 MSTORE PUSH1 0x40 SWAP1 KECCAK256 PUSH1 0x1 ADD SLOAD DUP2 LT ISZERO PUSH2 0x730 JUMPI PUSH1 0x1 PUSH1 0x1 PUSH1 0xA0 SHL SUB DUP6 AND PUSH1 0x0 SWAP1 DUP2 MSTORE PUSH1 0x2 PUSH1 0x20 MSTORE PUSH1 0x40 DUP2 KECCAK256 PUSH1 0x1 ADD DUP1 SLOAD DUP4 SWAP1 DUP2 LT PUSH2 0x671 JUMPI PUSH2 0x671 PUSH2 0xEA9 JUMP JUMPDEST PUSH1 0x0 SWAP2 DUP3 MSTORE PUSH1 0x20 SWAP1 SWAP2 KECCAK256 PUSH1 0x2 SWAP1 SWAP2 MUL ADD SLOAD PUSH1 0x1 PUSH1 0x1 PUSH1 0xA0 SHL SUB AND EQ PUSH2 0x71E JUMPI PUSH1 0x1 PUSH1 0x1 PUSH1 0xA0 SHL SUB DUP6 AND PUSH1 0x0 SWAP1 DUP2 MSTORE PUSH1 0x2 PUSH1 0x20 MSTORE PUSH1 0x40 SWAP1 KECCAK256 PUSH1 0x1 ADD DUP1 SLOAD DUP3 SWAP1 DUP2 LT PUSH2 0x6BD JUMPI PUSH2 0x6BD PUSH2 0xEA9 JUMP JUMPDEST PUSH1 0x0 SWAP2 DUP3 MSTORE PUSH1 0x20 SWAP2 DUP3 SWAP1 KECCAK256 PUSH1 0x40 DUP1 MLOAD DUP1 DUP3 ADD SWAP1 SWAP2 MSTORE PUSH1 0x2 SWAP1 SWAP3 MUL ADD DUP1 SLOAD PUSH1 0x1 PUSH1 0x1 PUSH1 0xA0 SHL SUB AND DUP3 MSTORE PUSH1 0x1 ADD SLOAD SWAP2 DUP2 ADD SWAP2 SWAP1 SWAP2 MSTORE DUP4 MLOAD DUP5 SWAP1 DUP5 SWAP1 DUP2 LT PUSH2 0x704 JUMPI PUSH2 0x704 PUSH2 0xEA9 JUMP JUMPDEST PUSH1 0x20 MUL PUSH1 0x20 ADD ADD DUP2 SWAP1 MSTORE POP DUP2 DUP1 PUSH2 0x71A SWAP1 PUSH2 0xEBF JUMP JUMPDEST SWAP3 POP POP JUMPDEST DUP1 PUSH2 0x728 DUP2 PUSH2 0xEBF JUMP JUMPDEST SWAP2 POP POP PUSH2 0x621 JUMP JUMPDEST POP SWAP1 SWAP4 SWAP3 POP POP POP JUMP JUMPDEST PUSH1 0x40 DUP1 MLOAD PUSH1 0x0 DUP1 DUP3 MSTORE PUSH1 0x20 DUP3 ADD SWAP1 SWAP3 MSTORE SWAP1 PUSH2 0x776 JUMP JUMPDEST PUSH1 0x40 DUP1 MLOAD DUP1 DUP3 ADD SWAP1 SWAP2 MSTORE PUSH1 0x0 DUP1 DUP3 MSTORE PUSH1 0x20 DUP3 ADD MSTORE DUP2 MSTORE PUSH1 0x20 ADD SWAP1 PUSH1 0x1 SWAP1 SUB SWAP1 DUP2 PUSH2 0x74F JUMPI SWAP1 POP JUMPDEST POP SWAP3 SWAP2 POP POP JUMP JUMPDEST PUSH2 0x785 PUSH2 0xA2C JUMP JUMPDEST CALLER PUSH1 0x0 SWAP1 DUP2 MSTORE PUSH1 0x2 PUSH1 0x20 MSTORE PUSH1 0x40 SWAP1 KECCAK256 SLOAD ISZERO PUSH2 0x7D3 JUMPI PUSH1 0x0 PUSH2 0x7A5 CALLER PUSH2 0xA85 JUMP JUMPDEST CALLER PUSH1 0x0 SWAP1 DUP2 MSTORE PUSH1 0x2 PUSH1 0x20 MSTORE PUSH1 0x40 DUP2 KECCAK256 PUSH1 0x3 ADD DUP1 SLOAD SWAP3 SWAP4 POP DUP4 SWAP3 SWAP1 SWAP2 SWAP1 PUSH2 0x7CC SWAP1 DUP5 SWAP1 PUSH2 0xE96 JUMP JUMPDEST SWAP1 SWAP2 SSTORE POP POP POP JUMPDEST PUSH1 0x40 MLOAD PUSH4 0x31A9108F PUSH1 0xE1 SHL DUP2 MSTORE PUSH1 0x4 DUP2 ADD DUP3 SWAP1 MSTORE CALLER SWAP1 PUSH1 0x1 PUSH1 0x1 PUSH1 0xA0 SHL SUB PUSH32 0x0 AND SWAP1 PUSH4 0x6352211E SWAP1 PUSH1 0x24 ADD PUSH1 0x20 PUSH1 0x40 MLOAD DUP1 DUP4 SUB DUP2 DUP7 GAS STATICCALL ISZERO DUP1 ISZERO PUSH2 0x83A JUMPI RETURNDATASIZE PUSH1 0x0 DUP1 RETURNDATACOPY RETURNDATASIZE PUSH1 0x0 REVERT JUMPDEST POP POP POP POP PUSH1 0x40 MLOAD RETURNDATASIZE PUSH1 0x1F NOT PUSH1 0x1F DUP3 ADD AND DUP3 ADD DUP1 PUSH1 0x40 MSTORE POP DUP2 ADD SWAP1 PUSH2 0x85E SWAP2 SWAP1 PUSH2 0xF05 JUMP JUMPDEST PUSH1 0x1 PUSH1 0x1 PUSH1 0xA0 SHL SUB AND EQ PUSH2 0x8B4 JUMPI PUSH1 0x40 MLOAD PUSH3 0x461BCD PUSH1 0xE5 SHL DUP2 MSTORE PUSH1 0x20 PUSH1 0x4 DUP3 ADD MSTORE PUSH1 0x19 PUSH1 0x24 DUP3 ADD MSTORE PUSH32 0x596F7520646F206E6F74206F776E207468697320746F6B656E00000000000000 PUSH1 0x44 DUP3 ADD MSTORE PUSH1 0x64 ADD PUSH2 0x264 JUMP JUMPDEST PUSH1 0x40 MLOAD PUSH4 0x23B872DD PUSH1 0xE0 SHL DUP2 MSTORE CALLER PUSH1 0x4 DUP3 ADD MSTORE ADDRESS PUSH1 0x24 DUP3 ADD MSTORE PUSH1 0x44 DUP2 ADD DUP3 SWAP1 MSTORE PUSH32 0x0 PUSH1 0x1 PUSH1 0x1 PUSH1 0xA0 SHL SUB AND SWAP1 PUSH4 0x23B872DD SWAP1 PUSH1 0x64 ADD PUSH1 0x0 PUSH1 0x40 MLOAD DUP1 DUP4 SUB DUP2 PUSH1 0x0 DUP8 DUP1 EXTCODESIZE ISZERO DUP1 ISZERO PUSH2 0x922 JUMPI PUSH1 0x0 DUP1 REVERT JUMPDEST POP GAS CALL ISZERO DUP1 ISZERO PUSH2 0x936 JUMPI RETURNDATASIZE PUSH1 0x0 DUP1 RETURNDATACOPY RETURNDATASIZE PUSH1 0x0 REVERT JUMPDEST POP POP PUSH1 0x40 DUP1 MLOAD DUP1 DUP3 ADD DUP3 MSTORE CALLER DUP1 DUP3 MSTORE PUSH1 0x20 DUP1 DUP4 ADD DUP8 DUP2 MSTORE PUSH1 0x0 DUP4 DUP2 MSTORE PUSH1 0x2 DUP1 DUP5 MSTORE SWAP6 DUP2 KECCAK256 PUSH1 0x1 DUP1 DUP3 ADD DUP1 SLOAD DUP1 DUP4 ADD DUP3 SSTORE SWAP1 DUP5 MSTORE SWAP5 DUP4 KECCAK256 DUP8 MLOAD SWAP6 SWAP1 SWAP9 MUL SWAP1 SWAP8 ADD DUP1 SLOAD PUSH1 0x1 PUSH1 0x1 PUSH1 0xA0 SHL SUB NOT AND PUSH1 0x1 PUSH1 0x1 PUSH1 0xA0 SHL SUB SWAP1 SWAP6 AND SWAP5 SWAP1 SWAP5 OR DUP5 SSTORE SWAP2 MLOAD SWAP3 SWAP1 SWAP6 ADD SWAP2 SWAP1 SWAP2 SSTORE SWAP1 DUP4 MSTORE DUP1 SLOAD SWAP2 SWAP5 POP SWAP1 SWAP3 POP SWAP1 PUSH2 0x9B1 DUP4 PUSH2 0xEBF JUMP JUMPDEST SWAP1 SWAP2 SSTORE POP POP POP PUSH1 0x0 DUP2 DUP2 MSTORE PUSH1 0x3 PUSH1 0x20 SWAP1 DUP2 MSTORE PUSH1 0x40 DUP1 DUP4 KECCAK256 DUP1 SLOAD PUSH1 0x1 PUSH1 0x1 PUSH1 0xA0 SHL SUB NOT AND CALLER SWAP1 DUP2 OR SWAP1 SWAP2 SSTORE DUP4 MSTORE PUSH1 0x2 SWAP2 DUP3 SWAP1 MSTORE SWAP1 SWAP2 KECCAK256 TIMESTAMP SWAP2 ADD SSTORE PUSH2 0x4B4 PUSH1 0x1 PUSH1 0x0 SSTORE JUMP JUMPDEST PUSH1 0x1 PUSH1 0x1 PUSH1 0xA0 SHL SUB DUP2 AND PUSH1 0x0 SWAP1 DUP2 MSTORE PUSH1 0x2 PUSH1 0x20 MSTORE PUSH1 0x40 DUP2 KECCAK256 PUSH1 0x3 ADD SLOAD DUP2 SWAP1 PUSH2 0xA1B DUP5 PUSH2 0xA85 JUMP JUMPDEST PUSH2 0xA25 SWAP2 SWAP1 PUSH2 0xE96 JUMP JUMPDEST SWAP4 SWAP3 POP POP POP JUMP JUMPDEST PUSH1 0x2 PUSH1 0x0 SLOAD SUB PUSH2 0xA7E JUMPI PUSH1 0x40 MLOAD PUSH3 0x461BCD PUSH1 0xE5 SHL DUP2 MSTORE PUSH1 0x20 PUSH1 0x4 DUP3 ADD MSTORE PUSH1 0x1F PUSH1 0x24 DUP3 ADD MSTORE PUSH32 0x5265656E7472616E637947756172643A207265656E7472616E742063616C6C00 PUSH1 0x44 DUP3 ADD MSTORE PUSH1 0x64 ADD PUSH2 0x264 JUMP JUMPDEST PUSH1 0x2 PUSH1 0x0 SSTORE JUMP JUMPDEST PUSH1 0x1 SLOAD PUSH1 0x1 PUSH1 0x1 PUSH1 0xA0 SHL SUB DUP3 AND PUSH1 0x0 SWAP1 DUP2 MSTORE PUSH1 0x2 PUSH1 0x20 DUP2 SWAP1 MSTORE PUSH1 0x40 DUP3 KECCAK256 DUP1 SLOAD SWAP2 ADD SLOAD SWAP2 SWAP3 PUSH2 0xE10 SWAP3 SWAP1 SWAP2 SWAP1 PUSH2 0xABA SWAP1 TIMESTAMP PUSH2 0xF22 JUMP JUMPDEST PUSH2 0xAC4 SWAP2 SWAP1 PUSH2 0xF35 JUMP JUMPDEST PUSH2 0xACE SWAP2 SWAP1 PUSH2 0xF35 JUMP JUMPDEST PUSH2 0xAD8 SWAP2 SWAP1 PUSH2 0xF4C JUMP JUMPDEST SWAP3 SWAP2 POP POP JUMP JUMPDEST PUSH1 0x1 PUSH1 0x0 SSTORE JUMP JUMPDEST PUSH1 0x40 DUP1 MLOAD PUSH1 0x1 PUSH1 0x1 PUSH1 0xA0 SHL SUB DUP5 AND PUSH1 0x24 DUP3 ADD MSTORE PUSH1 0x44 DUP1 DUP3 ADD DUP5 SWAP1 MSTORE DUP3 MLOAD DUP1 DUP4 SUB SWAP1 SWAP2 ADD DUP2 MSTORE PUSH1 0x64 SWAP1 SWAP2 ADD SWAP1 SWAP2 MSTORE PUSH1 0x20 DUP2 ADD DUP1 MLOAD PUSH28 0xFFFFFFFFFFFFFFFFFFFFFFFFFFFFFFFFFFFFFFFFFFFFFFFFFFFFFFFF AND PUSH4 0xA9059CBB PUSH1 0xE0 SHL OR SWAP1 MSTORE PUSH2 0xB4C SWAP1 DUP5 SWAP1 PUSH2 0xB51 JUMP JUMPDEST POP POP POP JUMP JUMPDEST PUSH1 0x0 PUSH2 0xBA6 DUP3 PUSH1 0x40 MLOAD DUP1 PUSH1 0x40 ADD PUSH1 0x40 MSTORE DUP1 PUSH1 0x20 DUP2 MSTORE PUSH1 0x20 ADD PUSH32 0x5361666545524332303A206C6F772D6C6576656C2063616C6C206661696C6564 DUP2 MSTORE POP DUP6 PUSH1 0x1 PUSH1 0x1 PUSH1 0xA0 SHL SUB AND PUSH2 0xC36 SWAP1 SWAP3 SWAP2 SWAP1 PUSH4 0xFFFFFFFF AND JUMP JUMPDEST DUP1 MLOAD SWAP1 SWAP2 POP ISZERO PUSH2 0xB4C JUMPI DUP1 DUP1 PUSH1 0x20 ADD SWAP1 MLOAD DUP2 ADD SWAP1 PUSH2 0xBC4 SWAP2 SWAP1 PUSH2 0xF6E JUMP JUMPDEST PUSH2 0xB4C JUMPI PUSH1 0x40 MLOAD PUSH3 0x461BCD PUSH1 0xE5 SHL DUP2 MSTORE PUSH1 0x20 PUSH1 0x4 DUP3 ADD MSTORE PUSH1 0x2A PUSH1 0x24 DUP3 ADD MSTORE PUSH32 0x5361666545524332303A204552433230206F7065726174696F6E20646964206E PUSH1 0x44 DUP3 ADD MSTORE PUSH32 0x6F74207375636365656400000000000000000000000000000000000000000000 PUSH1 0x64 DUP3 ADD MSTORE PUSH1 0x84 ADD PUSH2 0x264 JUMP JUMPDEST PUSH1 0x60 PUSH2 0xC45 DUP5 DUP5 PUSH1 0x0 DUP6 PUSH2 0xC4D JUMP JUMPDEST SWAP5 SWAP4 POP POP POP POP JUMP JUMPDEST PUSH1 0x60 DUP3 SELFBALANCE LT ISZERO PUSH2 0xCC5 JUMPI PUSH1 0x40 MLOAD PUSH3 0x461BCD PUSH1 0xE5 SHL DUP2 MSTORE PUSH1 0x20 PUSH1 0x4 DUP3 ADD MSTORE PUSH1 0x26 PUSH1 0x24 DUP3 ADD MSTORE PUSH32 0x416464726573733A20696E73756666696369656E742062616C616E636520666F PUSH1 0x44 DUP3 ADD MSTORE PUSH32 0x722063616C6C0000000000000000000000000000000000000000000000000000 PUSH1 0x64 DUP3 ADD MSTORE PUSH1 0x84 ADD PUSH2 0x264 JUMP JUMPDEST PUSH1 0x0 DUP1 DUP7 PUSH1 0x1 PUSH1 0x1 PUSH1 0xA0 SHL SUB AND DUP6 DUP8 PUSH1 0x40 MLOAD PUSH2 0xCE1 SWAP2 SWAP1 PUSH2 0xFB4 JUMP JUMPDEST PUSH1 0x0 PUSH1 0x40 MLOAD DUP1 DUP4 SUB DUP2 DUP6 DUP8 GAS CALL SWAP3 POP POP POP RETURNDATASIZE DUP1 PUSH1 0x0 DUP2 EQ PUSH2 0xD1E JUMPI PUSH1 0x40 MLOAD SWAP2 POP PUSH1 0x1F NOT PUSH1 0x3F RETURNDATASIZE ADD AND DUP3 ADD PUSH1 0x40 MSTORE RETURNDATASIZE DUP3 MSTORE RETURNDATASIZE PUSH1 0x0 PUSH1 0x20 DUP5 ADD RETURNDATACOPY PUSH2 0xD23 JUMP JUMPDEST PUSH1 0x60 SWAP2 POP JUMPDEST POP SWAP2 POP SWAP2 POP PUSH2 0xD34 DUP8 DUP4 DUP4 DUP8 PUSH2 0xD3F JUMP JUMPDEST SWAP8 SWAP7 POP POP POP POP POP POP POP JUMP JUMPDEST PUSH1 0x60 DUP4 ISZERO PUSH2 0xDAE JUMPI DUP3 MLOAD PUSH1 0x0 SUB PUSH2 0xDA7 JUMPI PUSH1 0x1 PUSH1 0x1 PUSH1 0xA0 SHL SUB DUP6 AND EXTCODESIZE PUSH2 0xDA7 JUMPI PUSH1 0x40 MLOAD PUSH3 0x461BCD PUSH1 0xE5 SHL DUP2 MSTORE PUSH1 0x20 PUSH1 0x4 DUP3 ADD MSTORE PUSH1 0x1D PUSH1 0x24 DUP3 ADD MSTORE PUSH32 0x416464726573733A2063616C6C20746F206E6F6E2D636F6E7472616374000000 PUSH1 0x44 DUP3 ADD MSTORE PUSH1 0x64 ADD PUSH2 0x264 JUMP JUMPDEST POP DUP2 PUSH2 0xC45 JUMP JUMPDEST PUSH2 0xC45 DUP4 DUP4 DUP2 MLOAD ISZERO PUSH2 0xDC3 JUMPI DUP2 MLOAD DUP1 DUP4 PUSH1 0x20 ADD REVERT JUMPDEST DUP1 PUSH1 0x40 MLOAD PUSH3 0x461BCD PUSH1 0xE5 SHL DUP2 MSTORE PUSH1 0x4 ADD PUSH2 0x264 SWAP2 SWAP1 PUSH2 0xFD0 JUMP JUMPDEST PUSH1 0x0 PUSH1 0x20 DUP3 DUP5 SUB SLT ISZERO PUSH2 0xDEF JUMPI PUSH1 0x0 DUP1 REVERT JUMPDEST POP CALLDATALOAD SWAP2 SWAP1 POP JUMP JUMPDEST PUSH1 0x1 PUSH1 0x1 PUSH1 0xA0 SHL SUB DUP2 AND DUP2 EQ PUSH2 0x4B4 JUMPI PUSH1 0x0 DUP1 REVERT JUMPDEST PUSH1 0x0 PUSH1 0x20 DUP3 DUP5 SUB SLT ISZERO PUSH2 0xE1D JUMPI PUSH1 0x0 DUP1 REVERT JUMPDEST DUP2 CALLDATALOAD PUSH2 0xA25 DUP2 PUSH2 0xDF6 JUMP JUMPDEST PUSH1 0x20 DUP1 DUP3 MSTORE DUP3 MLOAD DUP3 DUP3 ADD DUP2 SWAP1 MSTORE PUSH1 0x0 SWAP2 SWAP1 PUSH1 0x40 SWAP1 DUP2 DUP6 ADD SWAP1 DUP7 DUP5 ADD DUP6 JUMPDEST DUP3 DUP2 LT ISZERO PUSH2 0xE73 JUMPI DUP2 MLOAD DUP1 MLOAD PUSH1 0x1 PUSH1 0x1 PUSH1 0xA0 SHL SUB AND DUP6 MSTORE DUP7 ADD MLOAD DUP7 DUP6 ADD MSTORE SWAP3 DUP5 ADD SWAP3 SWAP1 DUP6 ADD SWAP1 PUSH1 0x1 ADD PUSH2 0xE45 JUMP JUMPDEST POP SWAP2 SWAP8 SWAP7 POP POP POP POP POP POP POP JUMP JUMPDEST PUSH4 0x4E487B71 PUSH1 0xE0 SHL PUSH1 0x0 MSTORE PUSH1 0x11 PUSH1 0x4 MSTORE PUSH1 0x24 PUSH1 0x0 REVERT JUMPDEST DUP1 DUP3 ADD DUP1 DUP3 GT ISZERO PUSH2 0xAD8 JUMPI PUSH2 0xAD8 PUSH2 0xE80 JUMP JUMPDEST PUSH4 0x4E487B71 PUSH1 0xE0 SHL PUSH1 0x0 MSTORE PUSH1 0x32 PUSH1 0x4 MSTORE PUSH1 0x24 PUSH1 0x0 REVERT JUMPDEST PUSH1 0x0 PUSH1 0x1 DUP3 ADD PUSH2 0xED1 JUMPI PUSH2 0xED1 PUSH2 0xE80 JUMP JUMPDEST POP PUSH1 0x1 ADD SWAP1 JUMP JUMPDEST PUSH1 0x0 DUP2 PUSH2 0xEE7 JUMPI PUSH2 0xEE7 PUSH2 0xE80 JUMP JUMPDEST POP PUSH1 0x0 NOT ADD SWAP1 JUMP JUMPDEST PUSH4 0x4E487B71 PUSH1 0xE0 SHL PUSH1 0x0 MSTORE PUSH1 0x41 PUSH1 0x4 MSTORE PUSH1 0x24 PUSH1 0x0 REVERT JUMPDEST PUSH1 0x0 PUSH1 0x20 DUP3 DUP5 SUB SLT ISZERO PUSH2 0xF17 JUMPI PUSH1 0x0 DUP1 REVERT JUMPDEST DUP2 MLOAD PUSH2 0xA25 DUP2 PUSH2 0xDF6 JUMP JUMPDEST DUP2 DUP2 SUB DUP2 DUP2 GT ISZERO PUSH2 0xAD8 JUMPI PUSH2 0xAD8 PUSH2 0xE80 JUMP JUMPDEST DUP1 DUP3 MUL DUP2 ISZERO DUP3 DUP3 DIV DUP5 EQ OR PUSH2 0xAD8 JUMPI PUSH2 0xAD8 PUSH2 0xE80 JUMP JUMPDEST PUSH1 0x0 DUP3 PUSH2 0xF69 JUMPI PUSH4 0x4E487B71 PUSH1 0xE0 SHL PUSH1 0x0 MSTORE PUSH1 0x12 PUSH1 0x4 MSTORE PUSH1 0x24 PUSH1 0x0 REVERT JUMPDEST POP DIV SWAP1 JUMP JUMPDEST PUSH1 0x0 PUSH1 0x20 DUP3 DUP5 SUB SLT ISZERO PUSH2 0xF80 JUMPI PUSH1 0x0 DUP1 REVERT JUMPDEST DUP2 MLOAD DUP1 ISZERO ISZERO DUP2 EQ PUSH2 0xA25 JUMPI PUSH1 0x0 DUP1 REVERT JUMPDEST PUSH1 0x0 JUMPDEST DUP4 DUP2 LT ISZERO PUSH2 0xFAB JUMPI DUP2 DUP2 ADD MLOAD DUP4 DUP3 ADD MSTORE PUSH1 0x20 ADD PUSH2 0xF93 JUMP JUMPDEST POP POP PUSH1 0x0 SWAP2 ADD MSTORE JUMP JUMPDEST PUSH1 0x0 DUP3 MLOAD PUSH2 0xFC6 DUP2 DUP5 PUSH1 0x20 DUP8 ADD PUSH2 0xF90 JUMP JUMPDEST SWAP2 SWAP1 SWAP2 ADD SWAP3 SWAP2 POP POP JUMP JUMPDEST PUSH1 0x20 DUP2 MSTORE PUSH1 0x0 DUP3 MLOAD DUP1 PUSH1 0x20 DUP5 ADD MSTORE PUSH2 0xFEF DUP2 PUSH1 0x40 DUP6 ADD PUSH1 0x20 DUP8 ADD PUSH2 0xF90 JUMP JUMPDEST PUSH1 0x1F ADD PUSH1 0x1F NOT AND SWAP2 SWAP1 SWAP2 ADD PUSH1 0x40 ADD SWAP3 SWAP2 POP POP JUMP INVALID LOG2 PUSH5 0x6970667358 0x22 SLT KECCAK256 0xD5 0xEC DUP8 0xDF 0xF7 PUSH20 0xBB8A2251FF2F22BCCD584BE2F985743CAA33749B DUP14 DUP12 DUP3 0xF7 0x2C 0xD4 PUSH5 0x736F6C6343 STOP ADDMOD GT STOP CALLER "
    },
    "gasEstimates": {
      "creation": {
        "codeDepositCost": "830600",
        "executionCost": "infinite",
        "totalCost": "infinite"
      },
      "external": {
        "availableRewards(address)": "infinite",
        "claimRewards()": "infinite",
        "getStakedTokens(address)": "infinite",
        "nftCollection()": "infinite",
        "rewardsToken()": "infinite",
        "stake(uint256)": "infinite",
        "stakerAddress(uint256)": "2522",
        "stakers(address)": "6811",
        "withdraw(uint256)": "infinite"
      },
      "internal": {
        "calculateRewards(address)": "infinite"
      }
    },
    "methodIdentifiers": {
      "availableRewards(address)": "f854a27f",
      "claimRewards()": "372500ab",
      "getStakedTokens(address)": "63c28db1",
      "nftCollection()": "6588103b",
      "rewardsToken()": "d1af0c7d",
      "stake(uint256)": "a694fc3a",
      "stakerAddress(uint256)": "94067045",
      "stakers(address)": "9168ae72",
      "withdraw(uint256)": "2e1a7d4d"
    }
  },
  "storageLayout": {
    "storage": [
      {
        "astId": 496,
        "contract": "NftStaking.sol:ERC721Staking",
        "label": "_status",
        "offset": 0,
        "slot": "0",
        "type": "t_uint256"
      },
      {
        "astId": 54,
        "contract": "NftStaking.sol:ERC721Staking",
        "label": "rewardsPerHour",
        "offset": 0,
        "slot": "1",
        "type": "t_uint256"
      },
      {
        "astId": 59,
        "contract": "NftStaking.sol:ERC721Staking",
        "label": "stakers",
        "offset": 0,
        "slot": "2",
        "type": "t_mapping(t_address,t_struct(Staker)51_storage)"
      },
      {
        "astId": 63,
        "contract": "NftStaking.sol:ERC721Staking",
        "label": "stakerAddress",
        "offset": 0,
        "slot": "3",
        "type": "t_mapping(t_uint256,t_address)"
      }
    ],
    "types": {
      "t_address": {
        "encoding": "inplace",
        "label": "address",
        "numberOfBytes": "20"
      },
      "t_array(t_struct(StakedToken)40_storage)dyn_storage": {
        "base": "t_struct(StakedToken)40_storage",
        "encoding": "dynamic_array",
        "label": "struct ERC721Staking.StakedToken[]",
        "numberOfBytes": "32"
      },
      "t_mapping(t_address,t_struct(Staker)51_storage)": {
        "encoding": "mapping",
        "key": "t_address",
        "label": "mapping(address => struct ERC721Staking.Staker)",
        "numberOfBytes": "32",
        "value": "t_struct(Staker)51_storage"
      },
      "t_mapping(t_uint256,t_address)": {
        "encoding": "mapping",
        "key": "t_uint256",
        "label": "mapping(uint256 => address)",
        "numberOfBytes": "32",
        "value": "t_address"
      },
      "t_struct(StakedToken)40_storage": {
        "encoding": "inplace",
        "label": "struct ERC721Staking.StakedToken",
        "members": [
          {
            "astId": 37,
            "contract": "NftStaking.sol:ERC721Staking",
            "label": "staker",
            "offset": 0,
            "slot": "0",
            "type": "t_address"
          },
          {
            "astId": 39,
            "contract": "NftStaking.sol:ERC721Staking",
            "label": "tokenId",
            "offset": 0,
            "slot": "1",
            "type": "t_uint256"
          }
        ],
        "numberOfBytes": "64"
      },
      "t_struct(Staker)51_storage": {
        "encoding": "inplace",
        "label": "struct ERC721Staking.Staker",
        "members": [
          {
            "astId": 42,
            "contract": "NftStaking.sol:ERC721Staking",
            "label": "amountStaked",
            "offset": 0,
            "slot": "0",
            "type": "t_uint256"
          },
          {
            "astId": 46,
            "contract": "NftStaking.sol:ERC721Staking",
            "label": "stakedTokens",
            "offset": 0,
            "slot": "1",
            "type": "t_array(t_struct(StakedToken)40_storage)dyn_storage"
          },
          {
            "astId": 48,
            "contract": "NftStaking.sol:ERC721Staking",
            "label": "timeOfLastUpdate",
            "offset": 0,
            "slot": "2",
            "type": "t_uint256"
          },
          {
            "astId": 50,
            "contract": "NftStaking.sol:ERC721Staking",
            "label": "unclaimedRewards",
            "offset": 0,
            "slot": "3",
            "type": "t_uint256"
          }
        ],
        "numberOfBytes": "128"
      },
      "t_uint256": {
        "encoding": "inplace",
        "label": "uint256",
        "numberOfBytes": "32"
      }
    }
  },
  "userdoc": {
    "kind": "user",
    "methods": {},
    "version": 1
  }
}